{
	"data": {
		"bytecode": {
			"linkReferences": {},
			"object": "60806040527350754bc93566bd25792e974d613ded8fa1442197600460006101000a81548173ffffffffffffffffffffffffffffffffffffffff021916908373ffffffffffffffffffffffffffffffffffffffff160217905550600060055534801561006a57600080fd5b50603c600080610134815260200190815260200160002081905550608460008061013881526020019081526020016000208190555060fb60008061013381526020019081526020016000208190555061061a60008061013c81526020019081526020016000208190555060216000806101428152602001908152602001600020819055506107f060008061025c8152602001908152602001600020819055506120a4806101186000396000f3fe608060405234801561001057600080fd5b506004361061007d5760003560e01c8063bb3fce001161005b578063bb3fce001461011d578063c03bfe0d1461014d578063e5492e2814610169578063ecff3332146101855761007d565b80636653d0f51461008257806395eddf7d146100bd578063b11d6046146100ed575b600080fd5b61009c60048036038101906100979190611523565b6101b5565b6040516100b49c9b9a9998979695949392919061155f565b60405180910390f35b6100d760048036038101906100d29190611523565b610225565b6040516100e49190611619565b60405180910390f35b61010760048036038101906101029190611523565b61023d565b604051610114919061164f565b60405180910390f35b610137600480360381019061013291906117b1565b61025d565b6040516101449190611619565b60405180910390f35b61016760048036038101906101629190611805565b610694565b005b610183600480360381019061017e9190611523565b610cf6565b005b61019f600480360381019061019a9190611523565b611086565b6040516101ac9190611619565b60405180910390f35b600681815481106101c557600080fd5b90600052602060002090600c020160009150905080600001549080600101549080600201549080600301549080600401549080600501549080600601549080600701549080600801549080600901549080600a01549080600b015490508c565b60026020528060005260406000206000915090505481565b60016020528060005260406000206000915054906101000a900460ff1681565b60006102688461109e565b6102a7576040517f08c379a000000000000000000000000000000000000000000000000000000000815260040161029e906118f0565b60405180910390fd5b600083101580156102ca5750600080858152602001908152602001600020548311155b610309576040517f08c379a000000000000000000000000000000000000000000000000000000000815260040161030090611982565b60405180910390fd5b610312826110f9565b610351576040517f08c379a000000000000000000000000000000000000000000000000000000000815260040161034890611a3a565b60405180910390fd5b60006040518061018001604052808681526020016000808881526020019081526020016000205481526020018581526020018460006009811061039757610396611a5a565b5b60200201518152602001846001600981106103b5576103b4611a5a565b5b60200201518152602001846002600981106103d3576103d2611a5a565b5b60200201518152602001846003600981106103f1576103f0611a5a565b5b602002015181526020018460046009811061040f5761040e611a5a565b5b602002015181526020018460056009811061042d5761042c611a5a565b5b602002015181526020018460066009811061044b5761044a611a5a565b5b602002015181526020018460076009811061046957610468611a5a565b5b602002015181526020018460086009811061048757610486611a5a565b5b6020020151815250905060068190806001815401808255809150506001900390600052602060002090600c0201600090919091909150600082015181600001556020820151816001015560408201518160020155606082015181600301556080820151816004015560a0820151816005015560c0820151816006015560e082015181600701556101008201518160080155610120820151816009015561014082015181600a015561016082015181600b015550506000600160068054905061054f9190611ab8565b9050600180600083815260200190815260200160002060006101000a81548160ff021916908315150217905550600460009054906101000a900473ffffffffffffffffffffffffffffffffffffffff1673ffffffffffffffffffffffffffffffffffffffff166317e0b94b303360055485600180600089815260200190815260200160002060009054906101000a900460ff166040518763ffffffff1660e01b815260040161060396959493929190611b72565b6020604051808303816000875af1158015610622573d6000803e3d6000fd5b505050506040513d601f19601f820116820180604052508101906106469190611be8565b60026000838152602001908152602001600020819055508060036000600260008581526020019081526020016000205481526020019081526020016000208190555080925050509392505050565b6000600460009054906101000a900473ffffffffffffffffffffffffffffffffffffffff1673ffffffffffffffffffffffffffffffffffffffff1662fdd58e33876040518363ffffffff1660e01b81526004016106f2929190611c15565b602060405180830381865afa15801561070f573d6000803e3d6000fd5b505050506040513d601f19601f820116820180604052508101906107339190611be8565b11610773576040517f08c379a000000000000000000000000000000000000000000000000000000000815260040161076a90611cb0565b60405180910390fd5b6000806000600460009054906101000a900473ffffffffffffffffffffffffffffffffffffffff1673ffffffffffffffffffffffffffffffffffffffff1663fd46a3ec886040518263ffffffff1660e01b81526004016107d39190611619565b606060405180830381865afa1580156107f0573d6000803e3d6000fd5b505050506040513d601f19601f820116820180604052508101906108149190611cfc565b9250925092503073ffffffffffffffffffffffffffffffffffffffff168373ffffffffffffffffffffffffffffffffffffffff1614610888576040517f08c379a000000000000000000000000000000000000000000000000000000000815260040161087f90611dc1565b60405180910390fd5b60055482146108cc576040517f08c379a00000000000000000000000000000000000000000000000000000000081526004016108c390611e53565b60405180910390fd5b6001600082815260200190815260200160002060009054906101000a900460ff1661092c576040517f08c379a000000000000000000000000000000000000000000000000000000000815260040161092390611ee5565b60405180910390fd5b6109358661109e565b610974576040517f08c379a000000000000000000000000000000000000000000000000000000000815260040161096b906118f0565b60405180910390fd5b600085101580156109975750600080878152602001908152602001600020548511155b6109d6576040517f08c379a00000000000000000000000000000000000000000000000000000000081526004016109cd90611982565b60405180910390fd5b6109df846110f9565b610a1e576040517f08c379a0000000000000000000000000000000000000000000000000000000008152600401610a1590611a3a565b60405180910390fd5b60405180610180016040528087815260200160008089815260200190815260200160002054815260200186815260200185600060098110610a6257610a61611a5a565b5b6020020151815260200185600160098110610a8057610a7f611a5a565b5b6020020151815260200185600260098110610a9e57610a9d611a5a565b5b6020020151815260200185600360098110610abc57610abb611a5a565b5b6020020151815260200185600460098110610ada57610ad9611a5a565b5b6020020151815260200185600560098110610af857610af7611a5a565b5b6020020151815260200185600660098110610b1657610b15611a5a565b5b6020020151815260200185600760098110610b3457610b33611a5a565b5b6020020151815260200185600860098110610b5257610b51611a5a565b5b602002015181525060068281548110610b6e57610b6d611a5a565b5b90600052602060002090600c0201600082015181600001556020820151816001015560408201518160020155606082015181600301556080820151816004015560a0820151816005015560c0820151816006015560e082015181600701556101008201518160080155610120820151816009015561014082015181600a015561016082015181600b015590505060006001600083815260200190815260200160002060006101000a81548160ff021916908315150217905550600460009054906101000a900473ffffffffffffffffffffffffffffffffffffffff1673ffffffffffffffffffffffffffffffffffffffff1663c985aeef303360026000868152602001908152602001600020546001600087815260200190815260200160002060009054906101000a900460ff166040518563ffffffff1660e01b8152600401610cbb9493929190611f05565b600060405180830381600087803b158015610cd557600080fd5b505af1158015610ce9573d6000803e3d6000fd5b5050505050505050505050565b6000600460009054906101000a900473ffffffffffffffffffffffffffffffffffffffff1673ffffffffffffffffffffffffffffffffffffffff1662fdd58e33846040518363ffffffff1660e01b8152600401610d54929190611c15565b602060405180830381865afa158015610d71573d6000803e3d6000fd5b505050506040513d601f19601f82011682018060405250810190610d959190611be8565b11610dd5576040517f08c379a0000000000000000000000000000000000000000000000000000000008152600401610dcc90611fbc565b60405180910390fd5b6000806000600460009054906101000a900473ffffffffffffffffffffffffffffffffffffffff1673ffffffffffffffffffffffffffffffffffffffff1663fd46a3ec856040518263ffffffff1660e01b8152600401610e359190611619565b606060405180830381865afa158015610e52573d6000803e3d6000fd5b505050506040513d601f19601f82011682018060405250810190610e769190611cfc565b9250925092503073ffffffffffffffffffffffffffffffffffffffff168373ffffffffffffffffffffffffffffffffffffffff1614610eea576040517f08c379a0000000000000000000000000000000000000000000000000000000008152600401610ee190611dc1565b60405180910390fd5b6005548214610f2e576040517f08c379a0000000000000000000000000000000000000000000000000000000008152600401610f2590611e53565b60405180910390fd5b6001600082815260200190815260200160002060009054906101000a900460ff1615610f8f576040517f08c379a0000000000000000000000000000000000000000000000000000000008152600401610f869061204e565b60405180910390fd5b600180600083815260200190815260200160002060006101000a81548160ff021916908315150217905550600460009054906101000a900473ffffffffffffffffffffffffffffffffffffffff1673ffffffffffffffffffffffffffffffffffffffff1663c985aeef303360026000868152602001908152602001600020546001600087815260200190815260200160002060009054906101000a900460ff166040518563ffffffff1660e01b815260040161104e9493929190611f05565b600060405180830381600087803b15801561106857600080fd5b505af115801561107c573d6000803e3d6000fd5b5050505050505050565b60036020528060005260406000206000915090505481565b600080600090506101348314806110b6575061013883145b806110c2575061013383145b806110ce575061013c83145b806110da575061014283145b806110e6575061025c83145b156110f057600190505b80915050919050565b6000806001905060008360006009811061111657611115611a5a565b5b6020020151108061113f575060018360006009811061113857611137611a5a565b5b6020020151115b1561114957600090505b60008360016009811061115f5761115e611a5a565b5b60200201511080611188575060018360016009811061118157611180611a5a565b5b6020020151115b1561119257600090505b6000836002600981106111a8576111a7611a5a565b5b602002015110806111d157506002836002600981106111ca576111c9611a5a565b5b6020020151115b156111db57600090505b6000836003600981106111f1576111f0611a5a565b5b6020020151108061121a575060028360036009811061121357611212611a5a565b5b6020020151115b1561122457600090505b60008360046009811061123a57611239611a5a565b5b60200201511080611263575060038360046009811061125c5761125b611a5a565b5b6020020151115b1561126d57600090505b60008360056009811061128357611282611a5a565b5b602002015110806112ac57506003836005600981106112a5576112a4611a5a565b5b6020020151115b156112b657600090505b6000836006600981106112cc576112cb611a5a565b5b602002015110806112f557506005836006600981106112ee576112ed611a5a565b5b6020020151115b80611361575060008360066009811061131157611310611a5a565b5b6020020151118015611360575060008360076009811061133457611333611a5a565b5b602002015114158061135f575060008360086009811061135757611356611a5a565b5b602002015114155b5b5b1561136b57600090505b60008360076009811061138157611380611a5a565b5b602002015110806113aa57506005836007600981106113a3576113a2611a5a565b5b6020020151115b8061141657506000836007600981106113c6576113c5611a5a565b5b602002015111801561141557506000836006600981106113e9576113e8611a5a565b5b6020020151141580611414575060008360086009811061140c5761140b611a5a565b5b602002015114155b5b5b1561142057600090505b60008360086009811061143657611435611a5a565b5b6020020151108061145f575060058360086009811061145857611457611a5a565b5b6020020151115b806114cb575060008360086009811061147b5761147a611a5a565b5b60200201511180156114ca575060008360066009811061149e5761149d611a5a565b5b60200201511415806114c957506000836007600981106114c1576114c0611a5a565b5b602002015114155b5b5b156114d557600090505b80915050919050565b6000604051905090565b600080fd5b6000819050919050565b611500816114ed565b811461150b57600080fd5b50565b60008135905061151d816114f7565b92915050565b600060208284031215611539576115386114e8565b5b60006115478482850161150e565b91505092915050565b611559816114ed565b82525050565b600061018082019050611575600083018f611550565b611582602083018e611550565b61158f604083018d611550565b61159c606083018c611550565b6115a9608083018b611550565b6115b660a083018a611550565b6115c360c0830189611550565b6115d060e0830188611550565b6115de610100830187611550565b6115ec610120830186611550565b6115fa610140830185611550565b611608610160830184611550565b9d9c50505050505050505050505050565b600060208201905061162e6000830184611550565b92915050565b60008115159050919050565b61164981611634565b82525050565b60006020820190506116646000830184611640565b92915050565b600080fd5b6000601f19601f8301169050919050565b7f4e487b7100000000000000000000000000000000000000000000000000000000600052604160045260246000fd5b6116b88261166f565b810181811067ffffffffffffffff821117156116d7576116d6611680565b5b80604052505050565b60006116ea6114de565b90506116f682826116af565b919050565b600067ffffffffffffffff82111561171657611715611680565b5b602082029050919050565b600080fd5b6000611739611734846116fb565b6116e0565b9050806020840283018581111561175357611752611721565b5b835b8181101561177c5780611768888261150e565b845260208401935050602081019050611755565b5050509392505050565b600082601f83011261179b5761179a61166a565b5b60096117a8848285611726565b91505092915050565b600080600061016084860312156117cb576117ca6114e8565b5b60006117d98682870161150e565b93505060206117ea8682870161150e565b92505060406117fb86828701611786565b9150509250925092565b60008060008061018085870312156118205761181f6114e8565b5b600061182e8782880161150e565b945050602061183f8782880161150e565b93505060406118508782880161150e565b925050606061186187828801611786565b91505092959194509250565b600082825260208201905092915050565b7f546865206974656d206964206e756d6265722070726f7669646564206973206e60008201527f6f7420657175616c20746f20616e2061636365707465642073776f7264000000602082015250565b60006118da603d8361186d565b91506118e58261187e565b604082019050919050565b60006020820190508181036000830152611909816118cd565b9050919050565b7f5468652073776f72642070726f766964656420646f6573206e6f74206861766560008201527f2061636365707461626c65206475726162696c69747900000000000000000000602082015250565b600061196c60368361186d565b915061197782611910565b604082019050919050565b6000602082019050818103600083015261199b8161195f565b9050919050565b7f54686520656e6368616e746d656e7473206f6e20746869732073776f7264206160008201527f7265206e6f742076616c696420696e207468652076616e696c6c61207665727360208201527f696f6e206f66206d696e65637261667400000000000000000000000000000000604082015250565b6000611a2460508361186d565b9150611a2f826119a2565b606082019050919050565b60006020820190508181036000830152611a5381611a17565b9050919050565b7f4e487b7100000000000000000000000000000000000000000000000000000000600052603260045260246000fd5b7f4e487b7100000000000000000000000000000000000000000000000000000000600052601160045260246000fd5b6000611ac3826114ed565b9150611ace836114ed565b925082821015611ae157611ae0611a89565b5b828203905092915050565b600073ffffffffffffffffffffffffffffffffffffffff82169050919050565b6000611b1782611aec565b9050919050565b611b2781611b0c565b82525050565b6000819050919050565b6000819050919050565b6000611b5c611b57611b5284611b2d565b611b37565b6114ed565b9050919050565b611b6c81611b41565b82525050565b600060c082019050611b876000830189611b1e565b611b946020830188611b1e565b611ba16040830187611550565b611bae6060830186611550565b611bbb6080830185611b63565b611bc860a0830184611640565b979650505050505050565b600081519050611be2816114f7565b92915050565b600060208284031215611bfe57611bfd6114e8565b5b6000611c0c84828501611bd3565b91505092915050565b6000604082019050611c2a6000830185611b1e565b611c376020830184611550565b9392505050565b7f546865206163636f756e7420747279696e6720746f206578706f727420646f6560008201527f73206e6f74206f776e207468697320746f6b656e000000000000000000000000602082015250565b6000611c9a60348361186d565b9150611ca582611c3e565b604082019050919050565b60006020820190508181036000830152611cc981611c8d565b9050919050565b611cd981611b0c565b8114611ce457600080fd5b50565b600081519050611cf681611cd0565b92915050565b600080600060608486031215611d1557611d146114e8565b5b6000611d2386828701611ce7565b9350506020611d3486828701611bd3565b9250506040611d4586828701611bd3565b9150509250925092565b7f4974656d20646f6573206e6f7420636f72726573706f6e6420746f207468697360008201527f2067616d652d636f6e7472616374000000000000000000000000000000000000602082015250565b6000611dab602e8361186d565b9150611db682611d4f565b604082019050919050565b60006020820190508181036000830152611dda81611d9e565b9050919050565b7f546865206974656d2773206c6f63616c206172726179206973206e6f74206f6660008201527f20747970652073776f7264000000000000000000000000000000000000000000602082015250565b6000611e3d602b8361186d565b9150611e4882611de1565b604082019050919050565b60006020820190508181036000830152611e6c81611e30565b9050919050565b7f546869732073776f7264206973206e6f742063757272656e746c7920696e206760008201527f616d6520616e6420746875732063616e2774206265206578706f727465640000602082015250565b6000611ecf603e8361186d565b9150611eda82611e73565b604082019050919050565b60006020820190508181036000830152611efe81611ec2565b9050919050565b6000608082019050611f1a6000830187611b1e565b611f276020830186611b1e565b611f346040830185611550565b611f416060830184611640565b95945050505050565b7f546865206163636f756e7420747279696e6720746f20696d706f727420646f6560008201527f73206e6f74206f776e207468697320746f6b656e000000000000000000000000602082015250565b6000611fa660348361186d565b9150611fb182611f4a565b604082019050919050565b60006020820190508181036000830152611fd581611f99565b9050919050565b7f546869732073776f72642069732063757272656e746c7920696e2d67616d652060008201527f616e6420746875732063616e277420626520696d706f72746564000000000000602082015250565b6000612038603a8361186d565b915061204382611fdc565b604082019050919050565b600060208201905081810360008301526120678161202b565b905091905056fea264697066735822122027469c8445f71de923b2de743588329fe0f8be6f463d75c7a9816edf17b0eb0a64736f6c634300080a0033",
			"opcodes": "PUSH1 0x80 PUSH1 0x40 MSTORE PUSH20 0x50754BC93566BD25792E974D613DED8FA1442197 PUSH1 0x4 PUSH1 0x0 PUSH2 0x100 EXP DUP2 SLOAD DUP2 PUSH20 0xFFFFFFFFFFFFFFFFFFFFFFFFFFFFFFFFFFFFFFFF MUL NOT AND SWAP1 DUP4 PUSH20 0xFFFFFFFFFFFFFFFFFFFFFFFFFFFFFFFFFFFFFFFF AND MUL OR SWAP1 SSTORE POP PUSH1 0x0 PUSH1 0x5 SSTORE CALLVALUE DUP1 ISZERO PUSH2 0x6A JUMPI PUSH1 0x0 DUP1 REVERT JUMPDEST POP PUSH1 0x3C PUSH1 0x0 DUP1 PUSH2 0x134 DUP2 MSTORE PUSH1 0x20 ADD SWAP1 DUP2 MSTORE PUSH1 0x20 ADD PUSH1 0x0 KECCAK256 DUP2 SWAP1 SSTORE POP PUSH1 0x84 PUSH1 0x0 DUP1 PUSH2 0x138 DUP2 MSTORE PUSH1 0x20 ADD SWAP1 DUP2 MSTORE PUSH1 0x20 ADD PUSH1 0x0 KECCAK256 DUP2 SWAP1 SSTORE POP PUSH1 0xFB PUSH1 0x0 DUP1 PUSH2 0x133 DUP2 MSTORE PUSH1 0x20 ADD SWAP1 DUP2 MSTORE PUSH1 0x20 ADD PUSH1 0x0 KECCAK256 DUP2 SWAP1 SSTORE POP PUSH2 0x61A PUSH1 0x0 DUP1 PUSH2 0x13C DUP2 MSTORE PUSH1 0x20 ADD SWAP1 DUP2 MSTORE PUSH1 0x20 ADD PUSH1 0x0 KECCAK256 DUP2 SWAP1 SSTORE POP PUSH1 0x21 PUSH1 0x0 DUP1 PUSH2 0x142 DUP2 MSTORE PUSH1 0x20 ADD SWAP1 DUP2 MSTORE PUSH1 0x20 ADD PUSH1 0x0 KECCAK256 DUP2 SWAP1 SSTORE POP PUSH2 0x7F0 PUSH1 0x0 DUP1 PUSH2 0x25C DUP2 MSTORE PUSH1 0x20 ADD SWAP1 DUP2 MSTORE PUSH1 0x20 ADD PUSH1 0x0 KECCAK256 DUP2 SWAP1 SSTORE POP PUSH2 0x20A4 DUP1 PUSH2 0x118 PUSH1 0x0 CODECOPY PUSH1 0x0 RETURN INVALID PUSH1 0x80 PUSH1 0x40 MSTORE CALLVALUE DUP1 ISZERO PUSH2 0x10 JUMPI PUSH1 0x0 DUP1 REVERT JUMPDEST POP PUSH1 0x4 CALLDATASIZE LT PUSH2 0x7D JUMPI PUSH1 0x0 CALLDATALOAD PUSH1 0xE0 SHR DUP1 PUSH4 0xBB3FCE00 GT PUSH2 0x5B JUMPI DUP1 PUSH4 0xBB3FCE00 EQ PUSH2 0x11D JUMPI DUP1 PUSH4 0xC03BFE0D EQ PUSH2 0x14D JUMPI DUP1 PUSH4 0xE5492E28 EQ PUSH2 0x169 JUMPI DUP1 PUSH4 0xECFF3332 EQ PUSH2 0x185 JUMPI PUSH2 0x7D JUMP JUMPDEST DUP1 PUSH4 0x6653D0F5 EQ PUSH2 0x82 JUMPI DUP1 PUSH4 0x95EDDF7D EQ PUSH2 0xBD JUMPI DUP1 PUSH4 0xB11D6046 EQ PUSH2 0xED JUMPI JUMPDEST PUSH1 0x0 DUP1 REVERT JUMPDEST PUSH2 0x9C PUSH1 0x4 DUP1 CALLDATASIZE SUB DUP2 ADD SWAP1 PUSH2 0x97 SWAP2 SWAP1 PUSH2 0x1523 JUMP JUMPDEST PUSH2 0x1B5 JUMP JUMPDEST PUSH1 0x40 MLOAD PUSH2 0xB4 SWAP13 SWAP12 SWAP11 SWAP10 SWAP9 SWAP8 SWAP7 SWAP6 SWAP5 SWAP4 SWAP3 SWAP2 SWAP1 PUSH2 0x155F JUMP JUMPDEST PUSH1 0x40 MLOAD DUP1 SWAP2 SUB SWAP1 RETURN JUMPDEST PUSH2 0xD7 PUSH1 0x4 DUP1 CALLDATASIZE SUB DUP2 ADD SWAP1 PUSH2 0xD2 SWAP2 SWAP1 PUSH2 0x1523 JUMP JUMPDEST PUSH2 0x225 JUMP JUMPDEST PUSH1 0x40 MLOAD PUSH2 0xE4 SWAP2 SWAP1 PUSH2 0x1619 JUMP JUMPDEST PUSH1 0x40 MLOAD DUP1 SWAP2 SUB SWAP1 RETURN JUMPDEST PUSH2 0x107 PUSH1 0x4 DUP1 CALLDATASIZE SUB DUP2 ADD SWAP1 PUSH2 0x102 SWAP2 SWAP1 PUSH2 0x1523 JUMP JUMPDEST PUSH2 0x23D JUMP JUMPDEST PUSH1 0x40 MLOAD PUSH2 0x114 SWAP2 SWAP1 PUSH2 0x164F JUMP JUMPDEST PUSH1 0x40 MLOAD DUP1 SWAP2 SUB SWAP1 RETURN JUMPDEST PUSH2 0x137 PUSH1 0x4 DUP1 CALLDATASIZE SUB DUP2 ADD SWAP1 PUSH2 0x132 SWAP2 SWAP1 PUSH2 0x17B1 JUMP JUMPDEST PUSH2 0x25D JUMP JUMPDEST PUSH1 0x40 MLOAD PUSH2 0x144 SWAP2 SWAP1 PUSH2 0x1619 JUMP JUMPDEST PUSH1 0x40 MLOAD DUP1 SWAP2 SUB SWAP1 RETURN JUMPDEST PUSH2 0x167 PUSH1 0x4 DUP1 CALLDATASIZE SUB DUP2 ADD SWAP1 PUSH2 0x162 SWAP2 SWAP1 PUSH2 0x1805 JUMP JUMPDEST PUSH2 0x694 JUMP JUMPDEST STOP JUMPDEST PUSH2 0x183 PUSH1 0x4 DUP1 CALLDATASIZE SUB DUP2 ADD SWAP1 PUSH2 0x17E SWAP2 SWAP1 PUSH2 0x1523 JUMP JUMPDEST PUSH2 0xCF6 JUMP JUMPDEST STOP JUMPDEST PUSH2 0x19F PUSH1 0x4 DUP1 CALLDATASIZE SUB DUP2 ADD SWAP1 PUSH2 0x19A SWAP2 SWAP1 PUSH2 0x1523 JUMP JUMPDEST PUSH2 0x1086 JUMP JUMPDEST PUSH1 0x40 MLOAD PUSH2 0x1AC SWAP2 SWAP1 PUSH2 0x1619 JUMP JUMPDEST PUSH1 0x40 MLOAD DUP1 SWAP2 SUB SWAP1 RETURN JUMPDEST PUSH1 0x6 DUP2 DUP2 SLOAD DUP2 LT PUSH2 0x1C5 JUMPI PUSH1 0x0 DUP1 REVERT JUMPDEST SWAP1 PUSH1 0x0 MSTORE PUSH1 0x20 PUSH1 0x0 KECCAK256 SWAP1 PUSH1 0xC MUL ADD PUSH1 0x0 SWAP2 POP SWAP1 POP DUP1 PUSH1 0x0 ADD SLOAD SWAP1 DUP1 PUSH1 0x1 ADD SLOAD SWAP1 DUP1 PUSH1 0x2 ADD SLOAD SWAP1 DUP1 PUSH1 0x3 ADD SLOAD SWAP1 DUP1 PUSH1 0x4 ADD SLOAD SWAP1 DUP1 PUSH1 0x5 ADD SLOAD SWAP1 DUP1 PUSH1 0x6 ADD SLOAD SWAP1 DUP1 PUSH1 0x7 ADD SLOAD SWAP1 DUP1 PUSH1 0x8 ADD SLOAD SWAP1 DUP1 PUSH1 0x9 ADD SLOAD SWAP1 DUP1 PUSH1 0xA ADD SLOAD SWAP1 DUP1 PUSH1 0xB ADD SLOAD SWAP1 POP DUP13 JUMP JUMPDEST PUSH1 0x2 PUSH1 0x20 MSTORE DUP1 PUSH1 0x0 MSTORE PUSH1 0x40 PUSH1 0x0 KECCAK256 PUSH1 0x0 SWAP2 POP SWAP1 POP SLOAD DUP2 JUMP JUMPDEST PUSH1 0x1 PUSH1 0x20 MSTORE DUP1 PUSH1 0x0 MSTORE PUSH1 0x40 PUSH1 0x0 KECCAK256 PUSH1 0x0 SWAP2 POP SLOAD SWAP1 PUSH2 0x100 EXP SWAP1 DIV PUSH1 0xFF AND DUP2 JUMP JUMPDEST PUSH1 0x0 PUSH2 0x268 DUP5 PUSH2 0x109E JUMP JUMPDEST PUSH2 0x2A7 JUMPI PUSH1 0x40 MLOAD PUSH32 0x8C379A000000000000000000000000000000000000000000000000000000000 DUP2 MSTORE PUSH1 0x4 ADD PUSH2 0x29E SWAP1 PUSH2 0x18F0 JUMP JUMPDEST PUSH1 0x40 MLOAD DUP1 SWAP2 SUB SWAP1 REVERT JUMPDEST PUSH1 0x0 DUP4 LT ISZERO DUP1 ISZERO PUSH2 0x2CA JUMPI POP PUSH1 0x0 DUP1 DUP6 DUP2 MSTORE PUSH1 0x20 ADD SWAP1 DUP2 MSTORE PUSH1 0x20 ADD PUSH1 0x0 KECCAK256 SLOAD DUP4 GT ISZERO JUMPDEST PUSH2 0x309 JUMPI PUSH1 0x40 MLOAD PUSH32 0x8C379A000000000000000000000000000000000000000000000000000000000 DUP2 MSTORE PUSH1 0x4 ADD PUSH2 0x300 SWAP1 PUSH2 0x1982 JUMP JUMPDEST PUSH1 0x40 MLOAD DUP1 SWAP2 SUB SWAP1 REVERT JUMPDEST PUSH2 0x312 DUP3 PUSH2 0x10F9 JUMP JUMPDEST PUSH2 0x351 JUMPI PUSH1 0x40 MLOAD PUSH32 0x8C379A000000000000000000000000000000000000000000000000000000000 DUP2 MSTORE PUSH1 0x4 ADD PUSH2 0x348 SWAP1 PUSH2 0x1A3A JUMP JUMPDEST PUSH1 0x40 MLOAD DUP1 SWAP2 SUB SWAP1 REVERT JUMPDEST PUSH1 0x0 PUSH1 0x40 MLOAD DUP1 PUSH2 0x180 ADD PUSH1 0x40 MSTORE DUP1 DUP7 DUP2 MSTORE PUSH1 0x20 ADD PUSH1 0x0 DUP1 DUP9 DUP2 MSTORE PUSH1 0x20 ADD SWAP1 DUP2 MSTORE PUSH1 0x20 ADD PUSH1 0x0 KECCAK256 SLOAD DUP2 MSTORE PUSH1 0x20 ADD DUP6 DUP2 MSTORE PUSH1 0x20 ADD DUP5 PUSH1 0x0 PUSH1 0x9 DUP2 LT PUSH2 0x397 JUMPI PUSH2 0x396 PUSH2 0x1A5A JUMP JUMPDEST JUMPDEST PUSH1 0x20 MUL ADD MLOAD DUP2 MSTORE PUSH1 0x20 ADD DUP5 PUSH1 0x1 PUSH1 0x9 DUP2 LT PUSH2 0x3B5 JUMPI PUSH2 0x3B4 PUSH2 0x1A5A JUMP JUMPDEST JUMPDEST PUSH1 0x20 MUL ADD MLOAD DUP2 MSTORE PUSH1 0x20 ADD DUP5 PUSH1 0x2 PUSH1 0x9 DUP2 LT PUSH2 0x3D3 JUMPI PUSH2 0x3D2 PUSH2 0x1A5A JUMP JUMPDEST JUMPDEST PUSH1 0x20 MUL ADD MLOAD DUP2 MSTORE PUSH1 0x20 ADD DUP5 PUSH1 0x3 PUSH1 0x9 DUP2 LT PUSH2 0x3F1 JUMPI PUSH2 0x3F0 PUSH2 0x1A5A JUMP JUMPDEST JUMPDEST PUSH1 0x20 MUL ADD MLOAD DUP2 MSTORE PUSH1 0x20 ADD DUP5 PUSH1 0x4 PUSH1 0x9 DUP2 LT PUSH2 0x40F JUMPI PUSH2 0x40E PUSH2 0x1A5A JUMP JUMPDEST JUMPDEST PUSH1 0x20 MUL ADD MLOAD DUP2 MSTORE PUSH1 0x20 ADD DUP5 PUSH1 0x5 PUSH1 0x9 DUP2 LT PUSH2 0x42D JUMPI PUSH2 0x42C PUSH2 0x1A5A JUMP JUMPDEST JUMPDEST PUSH1 0x20 MUL ADD MLOAD DUP2 MSTORE PUSH1 0x20 ADD DUP5 PUSH1 0x6 PUSH1 0x9 DUP2 LT PUSH2 0x44B JUMPI PUSH2 0x44A PUSH2 0x1A5A JUMP JUMPDEST JUMPDEST PUSH1 0x20 MUL ADD MLOAD DUP2 MSTORE PUSH1 0x20 ADD DUP5 PUSH1 0x7 PUSH1 0x9 DUP2 LT PUSH2 0x469 JUMPI PUSH2 0x468 PUSH2 0x1A5A JUMP JUMPDEST JUMPDEST PUSH1 0x20 MUL ADD MLOAD DUP2 MSTORE PUSH1 0x20 ADD DUP5 PUSH1 0x8 PUSH1 0x9 DUP2 LT PUSH2 0x487 JUMPI PUSH2 0x486 PUSH2 0x1A5A JUMP JUMPDEST JUMPDEST PUSH1 0x20 MUL ADD MLOAD DUP2 MSTORE POP SWAP1 POP PUSH1 0x6 DUP2 SWAP1 DUP1 PUSH1 0x1 DUP2 SLOAD ADD DUP1 DUP3 SSTORE DUP1 SWAP2 POP POP PUSH1 0x1 SWAP1 SUB SWAP1 PUSH1 0x0 MSTORE PUSH1 0x20 PUSH1 0x0 KECCAK256 SWAP1 PUSH1 0xC MUL ADD PUSH1 0x0 SWAP1 SWAP2 SWAP1 SWAP2 SWAP1 SWAP2 POP PUSH1 0x0 DUP3 ADD MLOAD DUP2 PUSH1 0x0 ADD SSTORE PUSH1 0x20 DUP3 ADD MLOAD DUP2 PUSH1 0x1 ADD SSTORE PUSH1 0x40 DUP3 ADD MLOAD DUP2 PUSH1 0x2 ADD SSTORE PUSH1 0x60 DUP3 ADD MLOAD DUP2 PUSH1 0x3 ADD SSTORE PUSH1 0x80 DUP3 ADD MLOAD DUP2 PUSH1 0x4 ADD SSTORE PUSH1 0xA0 DUP3 ADD MLOAD DUP2 PUSH1 0x5 ADD SSTORE PUSH1 0xC0 DUP3 ADD MLOAD DUP2 PUSH1 0x6 ADD SSTORE PUSH1 0xE0 DUP3 ADD MLOAD DUP2 PUSH1 0x7 ADD SSTORE PUSH2 0x100 DUP3 ADD MLOAD DUP2 PUSH1 0x8 ADD SSTORE PUSH2 0x120 DUP3 ADD MLOAD DUP2 PUSH1 0x9 ADD SSTORE PUSH2 0x140 DUP3 ADD MLOAD DUP2 PUSH1 0xA ADD SSTORE PUSH2 0x160 DUP3 ADD MLOAD DUP2 PUSH1 0xB ADD SSTORE POP POP PUSH1 0x0 PUSH1 0x1 PUSH1 0x6 DUP1 SLOAD SWAP1 POP PUSH2 0x54F SWAP2 SWAP1 PUSH2 0x1AB8 JUMP JUMPDEST SWAP1 POP PUSH1 0x1 DUP1 PUSH1 0x0 DUP4 DUP2 MSTORE PUSH1 0x20 ADD SWAP1 DUP2 MSTORE PUSH1 0x20 ADD PUSH1 0x0 KECCAK256 PUSH1 0x0 PUSH2 0x100 EXP DUP2 SLOAD DUP2 PUSH1 0xFF MUL NOT AND SWAP1 DUP4 ISZERO ISZERO MUL OR SWAP1 SSTORE POP PUSH1 0x4 PUSH1 0x0 SWAP1 SLOAD SWAP1 PUSH2 0x100 EXP SWAP1 DIV PUSH20 0xFFFFFFFFFFFFFFFFFFFFFFFFFFFFFFFFFFFFFFFF AND PUSH20 0xFFFFFFFFFFFFFFFFFFFFFFFFFFFFFFFFFFFFFFFF AND PUSH4 0x17E0B94B ADDRESS CALLER PUSH1 0x5 SLOAD DUP6 PUSH1 0x1 DUP1 PUSH1 0x0 DUP10 DUP2 MSTORE PUSH1 0x20 ADD SWAP1 DUP2 MSTORE PUSH1 0x20 ADD PUSH1 0x0 KECCAK256 PUSH1 0x0 SWAP1 SLOAD SWAP1 PUSH2 0x100 EXP SWAP1 DIV PUSH1 0xFF AND PUSH1 0x40 MLOAD DUP8 PUSH4 0xFFFFFFFF AND PUSH1 0xE0 SHL DUP2 MSTORE PUSH1 0x4 ADD PUSH2 0x603 SWAP7 SWAP6 SWAP5 SWAP4 SWAP3 SWAP2 SWAP1 PUSH2 0x1B72 JUMP JUMPDEST PUSH1 0x20 PUSH1 0x40 MLOAD DUP1 DUP4 SUB DUP2 PUSH1 0x0 DUP8 GAS CALL ISZERO DUP1 ISZERO PUSH2 0x622 JUMPI RETURNDATASIZE PUSH1 0x0 DUP1 RETURNDATACOPY RETURNDATASIZE PUSH1 0x0 REVERT JUMPDEST POP POP POP POP PUSH1 0x40 MLOAD RETURNDATASIZE PUSH1 0x1F NOT PUSH1 0x1F DUP3 ADD AND DUP3 ADD DUP1 PUSH1 0x40 MSTORE POP DUP2 ADD SWAP1 PUSH2 0x646 SWAP2 SWAP1 PUSH2 0x1BE8 JUMP JUMPDEST PUSH1 0x2 PUSH1 0x0 DUP4 DUP2 MSTORE PUSH1 0x20 ADD SWAP1 DUP2 MSTORE PUSH1 0x20 ADD PUSH1 0x0 KECCAK256 DUP2 SWAP1 SSTORE POP DUP1 PUSH1 0x3 PUSH1 0x0 PUSH1 0x2 PUSH1 0x0 DUP6 DUP2 MSTORE PUSH1 0x20 ADD SWAP1 DUP2 MSTORE PUSH1 0x20 ADD PUSH1 0x0 KECCAK256 SLOAD DUP2 MSTORE PUSH1 0x20 ADD SWAP1 DUP2 MSTORE PUSH1 0x20 ADD PUSH1 0x0 KECCAK256 DUP2 SWAP1 SSTORE POP DUP1 SWAP3 POP POP POP SWAP4 SWAP3 POP POP POP JUMP JUMPDEST PUSH1 0x0 PUSH1 0x4 PUSH1 0x0 SWAP1 SLOAD SWAP1 PUSH2 0x100 EXP SWAP1 DIV PUSH20 0xFFFFFFFFFFFFFFFFFFFFFFFFFFFFFFFFFFFFFFFF AND PUSH20 0xFFFFFFFFFFFFFFFFFFFFFFFFFFFFFFFFFFFFFFFF AND PUSH3 0xFDD58E CALLER DUP8 PUSH1 0x40 MLOAD DUP4 PUSH4 0xFFFFFFFF AND PUSH1 0xE0 SHL DUP2 MSTORE PUSH1 0x4 ADD PUSH2 0x6F2 SWAP3 SWAP2 SWAP1 PUSH2 0x1C15 JUMP JUMPDEST PUSH1 0x20 PUSH1 0x40 MLOAD DUP1 DUP4 SUB DUP2 DUP7 GAS STATICCALL ISZERO DUP1 ISZERO PUSH2 0x70F JUMPI RETURNDATASIZE PUSH1 0x0 DUP1 RETURNDATACOPY RETURNDATASIZE PUSH1 0x0 REVERT JUMPDEST POP POP POP POP PUSH1 0x40 MLOAD RETURNDATASIZE PUSH1 0x1F NOT PUSH1 0x1F DUP3 ADD AND DUP3 ADD DUP1 PUSH1 0x40 MSTORE POP DUP2 ADD SWAP1 PUSH2 0x733 SWAP2 SWAP1 PUSH2 0x1BE8 JUMP JUMPDEST GT PUSH2 0x773 JUMPI PUSH1 0x40 MLOAD PUSH32 0x8C379A000000000000000000000000000000000000000000000000000000000 DUP2 MSTORE PUSH1 0x4 ADD PUSH2 0x76A SWAP1 PUSH2 0x1CB0 JUMP JUMPDEST PUSH1 0x40 MLOAD DUP1 SWAP2 SUB SWAP1 REVERT JUMPDEST PUSH1 0x0 DUP1 PUSH1 0x0 PUSH1 0x4 PUSH1 0x0 SWAP1 SLOAD SWAP1 PUSH2 0x100 EXP SWAP1 DIV PUSH20 0xFFFFFFFFFFFFFFFFFFFFFFFFFFFFFFFFFFFFFFFF AND PUSH20 0xFFFFFFFFFFFFFFFFFFFFFFFFFFFFFFFFFFFFFFFF AND PUSH4 0xFD46A3EC DUP9 PUSH1 0x40 MLOAD DUP3 PUSH4 0xFFFFFFFF AND PUSH1 0xE0 SHL DUP2 MSTORE PUSH1 0x4 ADD PUSH2 0x7D3 SWAP2 SWAP1 PUSH2 0x1619 JUMP JUMPDEST PUSH1 0x60 PUSH1 0x40 MLOAD DUP1 DUP4 SUB DUP2 DUP7 GAS STATICCALL ISZERO DUP1 ISZERO PUSH2 0x7F0 JUMPI RETURNDATASIZE PUSH1 0x0 DUP1 RETURNDATACOPY RETURNDATASIZE PUSH1 0x0 REVERT JUMPDEST POP POP POP POP PUSH1 0x40 MLOAD RETURNDATASIZE PUSH1 0x1F NOT PUSH1 0x1F DUP3 ADD AND DUP3 ADD DUP1 PUSH1 0x40 MSTORE POP DUP2 ADD SWAP1 PUSH2 0x814 SWAP2 SWAP1 PUSH2 0x1CFC JUMP JUMPDEST SWAP3 POP SWAP3 POP SWAP3 POP ADDRESS PUSH20 0xFFFFFFFFFFFFFFFFFFFFFFFFFFFFFFFFFFFFFFFF AND DUP4 PUSH20 0xFFFFFFFFFFFFFFFFFFFFFFFFFFFFFFFFFFFFFFFF AND EQ PUSH2 0x888 JUMPI PUSH1 0x40 MLOAD PUSH32 0x8C379A000000000000000000000000000000000000000000000000000000000 DUP2 MSTORE PUSH1 0x4 ADD PUSH2 0x87F SWAP1 PUSH2 0x1DC1 JUMP JUMPDEST PUSH1 0x40 MLOAD DUP1 SWAP2 SUB SWAP1 REVERT JUMPDEST PUSH1 0x5 SLOAD DUP3 EQ PUSH2 0x8CC JUMPI PUSH1 0x40 MLOAD PUSH32 0x8C379A000000000000000000000000000000000000000000000000000000000 DUP2 MSTORE PUSH1 0x4 ADD PUSH2 0x8C3 SWAP1 PUSH2 0x1E53 JUMP JUMPDEST PUSH1 0x40 MLOAD DUP1 SWAP2 SUB SWAP1 REVERT JUMPDEST PUSH1 0x1 PUSH1 0x0 DUP3 DUP2 MSTORE PUSH1 0x20 ADD SWAP1 DUP2 MSTORE PUSH1 0x20 ADD PUSH1 0x0 KECCAK256 PUSH1 0x0 SWAP1 SLOAD SWAP1 PUSH2 0x100 EXP SWAP1 DIV PUSH1 0xFF AND PUSH2 0x92C JUMPI PUSH1 0x40 MLOAD PUSH32 0x8C379A000000000000000000000000000000000000000000000000000000000 DUP2 MSTORE PUSH1 0x4 ADD PUSH2 0x923 SWAP1 PUSH2 0x1EE5 JUMP JUMPDEST PUSH1 0x40 MLOAD DUP1 SWAP2 SUB SWAP1 REVERT JUMPDEST PUSH2 0x935 DUP7 PUSH2 0x109E JUMP JUMPDEST PUSH2 0x974 JUMPI PUSH1 0x40 MLOAD PUSH32 0x8C379A000000000000000000000000000000000000000000000000000000000 DUP2 MSTORE PUSH1 0x4 ADD PUSH2 0x96B SWAP1 PUSH2 0x18F0 JUMP JUMPDEST PUSH1 0x40 MLOAD DUP1 SWAP2 SUB SWAP1 REVERT JUMPDEST PUSH1 0x0 DUP6 LT ISZERO DUP1 ISZERO PUSH2 0x997 JUMPI POP PUSH1 0x0 DUP1 DUP8 DUP2 MSTORE PUSH1 0x20 ADD SWAP1 DUP2 MSTORE PUSH1 0x20 ADD PUSH1 0x0 KECCAK256 SLOAD DUP6 GT ISZERO JUMPDEST PUSH2 0x9D6 JUMPI PUSH1 0x40 MLOAD PUSH32 0x8C379A000000000000000000000000000000000000000000000000000000000 DUP2 MSTORE PUSH1 0x4 ADD PUSH2 0x9CD SWAP1 PUSH2 0x1982 JUMP JUMPDEST PUSH1 0x40 MLOAD DUP1 SWAP2 SUB SWAP1 REVERT JUMPDEST PUSH2 0x9DF DUP5 PUSH2 0x10F9 JUMP JUMPDEST PUSH2 0xA1E JUMPI PUSH1 0x40 MLOAD PUSH32 0x8C379A000000000000000000000000000000000000000000000000000000000 DUP2 MSTORE PUSH1 0x4 ADD PUSH2 0xA15 SWAP1 PUSH2 0x1A3A JUMP JUMPDEST PUSH1 0x40 MLOAD DUP1 SWAP2 SUB SWAP1 REVERT JUMPDEST PUSH1 0x40 MLOAD DUP1 PUSH2 0x180 ADD PUSH1 0x40 MSTORE DUP1 DUP8 DUP2 MSTORE PUSH1 0x20 ADD PUSH1 0x0 DUP1 DUP10 DUP2 MSTORE PUSH1 0x20 ADD SWAP1 DUP2 MSTORE PUSH1 0x20 ADD PUSH1 0x0 KECCAK256 SLOAD DUP2 MSTORE PUSH1 0x20 ADD DUP7 DUP2 MSTORE PUSH1 0x20 ADD DUP6 PUSH1 0x0 PUSH1 0x9 DUP2 LT PUSH2 0xA62 JUMPI PUSH2 0xA61 PUSH2 0x1A5A JUMP JUMPDEST JUMPDEST PUSH1 0x20 MUL ADD MLOAD DUP2 MSTORE PUSH1 0x20 ADD DUP6 PUSH1 0x1 PUSH1 0x9 DUP2 LT PUSH2 0xA80 JUMPI PUSH2 0xA7F PUSH2 0x1A5A JUMP JUMPDEST JUMPDEST PUSH1 0x20 MUL ADD MLOAD DUP2 MSTORE PUSH1 0x20 ADD DUP6 PUSH1 0x2 PUSH1 0x9 DUP2 LT PUSH2 0xA9E JUMPI PUSH2 0xA9D PUSH2 0x1A5A JUMP JUMPDEST JUMPDEST PUSH1 0x20 MUL ADD MLOAD DUP2 MSTORE PUSH1 0x20 ADD DUP6 PUSH1 0x3 PUSH1 0x9 DUP2 LT PUSH2 0xABC JUMPI PUSH2 0xABB PUSH2 0x1A5A JUMP JUMPDEST JUMPDEST PUSH1 0x20 MUL ADD MLOAD DUP2 MSTORE PUSH1 0x20 ADD DUP6 PUSH1 0x4 PUSH1 0x9 DUP2 LT PUSH2 0xADA JUMPI PUSH2 0xAD9 PUSH2 0x1A5A JUMP JUMPDEST JUMPDEST PUSH1 0x20 MUL ADD MLOAD DUP2 MSTORE PUSH1 0x20 ADD DUP6 PUSH1 0x5 PUSH1 0x9 DUP2 LT PUSH2 0xAF8 JUMPI PUSH2 0xAF7 PUSH2 0x1A5A JUMP JUMPDEST JUMPDEST PUSH1 0x20 MUL ADD MLOAD DUP2 MSTORE PUSH1 0x20 ADD DUP6 PUSH1 0x6 PUSH1 0x9 DUP2 LT PUSH2 0xB16 JUMPI PUSH2 0xB15 PUSH2 0x1A5A JUMP JUMPDEST JUMPDEST PUSH1 0x20 MUL ADD MLOAD DUP2 MSTORE PUSH1 0x20 ADD DUP6 PUSH1 0x7 PUSH1 0x9 DUP2 LT PUSH2 0xB34 JUMPI PUSH2 0xB33 PUSH2 0x1A5A JUMP JUMPDEST JUMPDEST PUSH1 0x20 MUL ADD MLOAD DUP2 MSTORE PUSH1 0x20 ADD DUP6 PUSH1 0x8 PUSH1 0x9 DUP2 LT PUSH2 0xB52 JUMPI PUSH2 0xB51 PUSH2 0x1A5A JUMP JUMPDEST JUMPDEST PUSH1 0x20 MUL ADD MLOAD DUP2 MSTORE POP PUSH1 0x6 DUP3 DUP2 SLOAD DUP2 LT PUSH2 0xB6E JUMPI PUSH2 0xB6D PUSH2 0x1A5A JUMP JUMPDEST JUMPDEST SWAP1 PUSH1 0x0 MSTORE PUSH1 0x20 PUSH1 0x0 KECCAK256 SWAP1 PUSH1 0xC MUL ADD PUSH1 0x0 DUP3 ADD MLOAD DUP2 PUSH1 0x0 ADD SSTORE PUSH1 0x20 DUP3 ADD MLOAD DUP2 PUSH1 0x1 ADD SSTORE PUSH1 0x40 DUP3 ADD MLOAD DUP2 PUSH1 0x2 ADD SSTORE PUSH1 0x60 DUP3 ADD MLOAD DUP2 PUSH1 0x3 ADD SSTORE PUSH1 0x80 DUP3 ADD MLOAD DUP2 PUSH1 0x4 ADD SSTORE PUSH1 0xA0 DUP3 ADD MLOAD DUP2 PUSH1 0x5 ADD SSTORE PUSH1 0xC0 DUP3 ADD MLOAD DUP2 PUSH1 0x6 ADD SSTORE PUSH1 0xE0 DUP3 ADD MLOAD DUP2 PUSH1 0x7 ADD SSTORE PUSH2 0x100 DUP3 ADD MLOAD DUP2 PUSH1 0x8 ADD SSTORE PUSH2 0x120 DUP3 ADD MLOAD DUP2 PUSH1 0x9 ADD SSTORE PUSH2 0x140 DUP3 ADD MLOAD DUP2 PUSH1 0xA ADD SSTORE PUSH2 0x160 DUP3 ADD MLOAD DUP2 PUSH1 0xB ADD SSTORE SWAP1 POP POP PUSH1 0x0 PUSH1 0x1 PUSH1 0x0 DUP4 DUP2 MSTORE PUSH1 0x20 ADD SWAP1 DUP2 MSTORE PUSH1 0x20 ADD PUSH1 0x0 KECCAK256 PUSH1 0x0 PUSH2 0x100 EXP DUP2 SLOAD DUP2 PUSH1 0xFF MUL NOT AND SWAP1 DUP4 ISZERO ISZERO MUL OR SWAP1 SSTORE POP PUSH1 0x4 PUSH1 0x0 SWAP1 SLOAD SWAP1 PUSH2 0x100 EXP SWAP1 DIV PUSH20 0xFFFFFFFFFFFFFFFFFFFFFFFFFFFFFFFFFFFFFFFF AND PUSH20 0xFFFFFFFFFFFFFFFFFFFFFFFFFFFFFFFFFFFFFFFF AND PUSH4 0xC985AEEF ADDRESS CALLER PUSH1 0x2 PUSH1 0x0 DUP7 DUP2 MSTORE PUSH1 0x20 ADD SWAP1 DUP2 MSTORE PUSH1 0x20 ADD PUSH1 0x0 KECCAK256 SLOAD PUSH1 0x1 PUSH1 0x0 DUP8 DUP2 MSTORE PUSH1 0x20 ADD SWAP1 DUP2 MSTORE PUSH1 0x20 ADD PUSH1 0x0 KECCAK256 PUSH1 0x0 SWAP1 SLOAD SWAP1 PUSH2 0x100 EXP SWAP1 DIV PUSH1 0xFF AND PUSH1 0x40 MLOAD DUP6 PUSH4 0xFFFFFFFF AND PUSH1 0xE0 SHL DUP2 MSTORE PUSH1 0x4 ADD PUSH2 0xCBB SWAP5 SWAP4 SWAP3 SWAP2 SWAP1 PUSH2 0x1F05 JUMP JUMPDEST PUSH1 0x0 PUSH1 0x40 MLOAD DUP1 DUP4 SUB DUP2 PUSH1 0x0 DUP8 DUP1 EXTCODESIZE ISZERO DUP1 ISZERO PUSH2 0xCD5 JUMPI PUSH1 0x0 DUP1 REVERT JUMPDEST POP GAS CALL ISZERO DUP1 ISZERO PUSH2 0xCE9 JUMPI RETURNDATASIZE PUSH1 0x0 DUP1 RETURNDATACOPY RETURNDATASIZE PUSH1 0x0 REVERT JUMPDEST POP POP POP POP POP POP POP POP POP POP POP JUMP JUMPDEST PUSH1 0x0 PUSH1 0x4 PUSH1 0x0 SWAP1 SLOAD SWAP1 PUSH2 0x100 EXP SWAP1 DIV PUSH20 0xFFFFFFFFFFFFFFFFFFFFFFFFFFFFFFFFFFFFFFFF AND PUSH20 0xFFFFFFFFFFFFFFFFFFFFFFFFFFFFFFFFFFFFFFFF AND PUSH3 0xFDD58E CALLER DUP5 PUSH1 0x40 MLOAD DUP4 PUSH4 0xFFFFFFFF AND PUSH1 0xE0 SHL DUP2 MSTORE PUSH1 0x4 ADD PUSH2 0xD54 SWAP3 SWAP2 SWAP1 PUSH2 0x1C15 JUMP JUMPDEST PUSH1 0x20 PUSH1 0x40 MLOAD DUP1 DUP4 SUB DUP2 DUP7 GAS STATICCALL ISZERO DUP1 ISZERO PUSH2 0xD71 JUMPI RETURNDATASIZE PUSH1 0x0 DUP1 RETURNDATACOPY RETURNDATASIZE PUSH1 0x0 REVERT JUMPDEST POP POP POP POP PUSH1 0x40 MLOAD RETURNDATASIZE PUSH1 0x1F NOT PUSH1 0x1F DUP3 ADD AND DUP3 ADD DUP1 PUSH1 0x40 MSTORE POP DUP2 ADD SWAP1 PUSH2 0xD95 SWAP2 SWAP1 PUSH2 0x1BE8 JUMP JUMPDEST GT PUSH2 0xDD5 JUMPI PUSH1 0x40 MLOAD PUSH32 0x8C379A000000000000000000000000000000000000000000000000000000000 DUP2 MSTORE PUSH1 0x4 ADD PUSH2 0xDCC SWAP1 PUSH2 0x1FBC JUMP JUMPDEST PUSH1 0x40 MLOAD DUP1 SWAP2 SUB SWAP1 REVERT JUMPDEST PUSH1 0x0 DUP1 PUSH1 0x0 PUSH1 0x4 PUSH1 0x0 SWAP1 SLOAD SWAP1 PUSH2 0x100 EXP SWAP1 DIV PUSH20 0xFFFFFFFFFFFFFFFFFFFFFFFFFFFFFFFFFFFFFFFF AND PUSH20 0xFFFFFFFFFFFFFFFFFFFFFFFFFFFFFFFFFFFFFFFF AND PUSH4 0xFD46A3EC DUP6 PUSH1 0x40 MLOAD DUP3 PUSH4 0xFFFFFFFF AND PUSH1 0xE0 SHL DUP2 MSTORE PUSH1 0x4 ADD PUSH2 0xE35 SWAP2 SWAP1 PUSH2 0x1619 JUMP JUMPDEST PUSH1 0x60 PUSH1 0x40 MLOAD DUP1 DUP4 SUB DUP2 DUP7 GAS STATICCALL ISZERO DUP1 ISZERO PUSH2 0xE52 JUMPI RETURNDATASIZE PUSH1 0x0 DUP1 RETURNDATACOPY RETURNDATASIZE PUSH1 0x0 REVERT JUMPDEST POP POP POP POP PUSH1 0x40 MLOAD RETURNDATASIZE PUSH1 0x1F NOT PUSH1 0x1F DUP3 ADD AND DUP3 ADD DUP1 PUSH1 0x40 MSTORE POP DUP2 ADD SWAP1 PUSH2 0xE76 SWAP2 SWAP1 PUSH2 0x1CFC JUMP JUMPDEST SWAP3 POP SWAP3 POP SWAP3 POP ADDRESS PUSH20 0xFFFFFFFFFFFFFFFFFFFFFFFFFFFFFFFFFFFFFFFF AND DUP4 PUSH20 0xFFFFFFFFFFFFFFFFFFFFFFFFFFFFFFFFFFFFFFFF AND EQ PUSH2 0xEEA JUMPI PUSH1 0x40 MLOAD PUSH32 0x8C379A000000000000000000000000000000000000000000000000000000000 DUP2 MSTORE PUSH1 0x4 ADD PUSH2 0xEE1 SWAP1 PUSH2 0x1DC1 JUMP JUMPDEST PUSH1 0x40 MLOAD DUP1 SWAP2 SUB SWAP1 REVERT JUMPDEST PUSH1 0x5 SLOAD DUP3 EQ PUSH2 0xF2E JUMPI PUSH1 0x40 MLOAD PUSH32 0x8C379A000000000000000000000000000000000000000000000000000000000 DUP2 MSTORE PUSH1 0x4 ADD PUSH2 0xF25 SWAP1 PUSH2 0x1E53 JUMP JUMPDEST PUSH1 0x40 MLOAD DUP1 SWAP2 SUB SWAP1 REVERT JUMPDEST PUSH1 0x1 PUSH1 0x0 DUP3 DUP2 MSTORE PUSH1 0x20 ADD SWAP1 DUP2 MSTORE PUSH1 0x20 ADD PUSH1 0x0 KECCAK256 PUSH1 0x0 SWAP1 SLOAD SWAP1 PUSH2 0x100 EXP SWAP1 DIV PUSH1 0xFF AND ISZERO PUSH2 0xF8F JUMPI PUSH1 0x40 MLOAD PUSH32 0x8C379A000000000000000000000000000000000000000000000000000000000 DUP2 MSTORE PUSH1 0x4 ADD PUSH2 0xF86 SWAP1 PUSH2 0x204E JUMP JUMPDEST PUSH1 0x40 MLOAD DUP1 SWAP2 SUB SWAP1 REVERT JUMPDEST PUSH1 0x1 DUP1 PUSH1 0x0 DUP4 DUP2 MSTORE PUSH1 0x20 ADD SWAP1 DUP2 MSTORE PUSH1 0x20 ADD PUSH1 0x0 KECCAK256 PUSH1 0x0 PUSH2 0x100 EXP DUP2 SLOAD DUP2 PUSH1 0xFF MUL NOT AND SWAP1 DUP4 ISZERO ISZERO MUL OR SWAP1 SSTORE POP PUSH1 0x4 PUSH1 0x0 SWAP1 SLOAD SWAP1 PUSH2 0x100 EXP SWAP1 DIV PUSH20 0xFFFFFFFFFFFFFFFFFFFFFFFFFFFFFFFFFFFFFFFF AND PUSH20 0xFFFFFFFFFFFFFFFFFFFFFFFFFFFFFFFFFFFFFFFF AND PUSH4 0xC985AEEF ADDRESS CALLER PUSH1 0x2 PUSH1 0x0 DUP7 DUP2 MSTORE PUSH1 0x20 ADD SWAP1 DUP2 MSTORE PUSH1 0x20 ADD PUSH1 0x0 KECCAK256 SLOAD PUSH1 0x1 PUSH1 0x0 DUP8 DUP2 MSTORE PUSH1 0x20 ADD SWAP1 DUP2 MSTORE PUSH1 0x20 ADD PUSH1 0x0 KECCAK256 PUSH1 0x0 SWAP1 SLOAD SWAP1 PUSH2 0x100 EXP SWAP1 DIV PUSH1 0xFF AND PUSH1 0x40 MLOAD DUP6 PUSH4 0xFFFFFFFF AND PUSH1 0xE0 SHL DUP2 MSTORE PUSH1 0x4 ADD PUSH2 0x104E SWAP5 SWAP4 SWAP3 SWAP2 SWAP1 PUSH2 0x1F05 JUMP JUMPDEST PUSH1 0x0 PUSH1 0x40 MLOAD DUP1 DUP4 SUB DUP2 PUSH1 0x0 DUP8 DUP1 EXTCODESIZE ISZERO DUP1 ISZERO PUSH2 0x1068 JUMPI PUSH1 0x0 DUP1 REVERT JUMPDEST POP GAS CALL ISZERO DUP1 ISZERO PUSH2 0x107C JUMPI RETURNDATASIZE PUSH1 0x0 DUP1 RETURNDATACOPY RETURNDATASIZE PUSH1 0x0 REVERT JUMPDEST POP POP POP POP POP POP POP POP JUMP JUMPDEST PUSH1 0x3 PUSH1 0x20 MSTORE DUP1 PUSH1 0x0 MSTORE PUSH1 0x40 PUSH1 0x0 KECCAK256 PUSH1 0x0 SWAP2 POP SWAP1 POP SLOAD DUP2 JUMP JUMPDEST PUSH1 0x0 DUP1 PUSH1 0x0 SWAP1 POP PUSH2 0x134 DUP4 EQ DUP1 PUSH2 0x10B6 JUMPI POP PUSH2 0x138 DUP4 EQ JUMPDEST DUP1 PUSH2 0x10C2 JUMPI POP PUSH2 0x133 DUP4 EQ JUMPDEST DUP1 PUSH2 0x10CE JUMPI POP PUSH2 0x13C DUP4 EQ JUMPDEST DUP1 PUSH2 0x10DA JUMPI POP PUSH2 0x142 DUP4 EQ JUMPDEST DUP1 PUSH2 0x10E6 JUMPI POP PUSH2 0x25C DUP4 EQ JUMPDEST ISZERO PUSH2 0x10F0 JUMPI PUSH1 0x1 SWAP1 POP JUMPDEST DUP1 SWAP2 POP POP SWAP2 SWAP1 POP JUMP JUMPDEST PUSH1 0x0 DUP1 PUSH1 0x1 SWAP1 POP PUSH1 0x0 DUP4 PUSH1 0x0 PUSH1 0x9 DUP2 LT PUSH2 0x1116 JUMPI PUSH2 0x1115 PUSH2 0x1A5A JUMP JUMPDEST JUMPDEST PUSH1 0x20 MUL ADD MLOAD LT DUP1 PUSH2 0x113F JUMPI POP PUSH1 0x1 DUP4 PUSH1 0x0 PUSH1 0x9 DUP2 LT PUSH2 0x1138 JUMPI PUSH2 0x1137 PUSH2 0x1A5A JUMP JUMPDEST JUMPDEST PUSH1 0x20 MUL ADD MLOAD GT JUMPDEST ISZERO PUSH2 0x1149 JUMPI PUSH1 0x0 SWAP1 POP JUMPDEST PUSH1 0x0 DUP4 PUSH1 0x1 PUSH1 0x9 DUP2 LT PUSH2 0x115F JUMPI PUSH2 0x115E PUSH2 0x1A5A JUMP JUMPDEST JUMPDEST PUSH1 0x20 MUL ADD MLOAD LT DUP1 PUSH2 0x1188 JUMPI POP PUSH1 0x1 DUP4 PUSH1 0x1 PUSH1 0x9 DUP2 LT PUSH2 0x1181 JUMPI PUSH2 0x1180 PUSH2 0x1A5A JUMP JUMPDEST JUMPDEST PUSH1 0x20 MUL ADD MLOAD GT JUMPDEST ISZERO PUSH2 0x1192 JUMPI PUSH1 0x0 SWAP1 POP JUMPDEST PUSH1 0x0 DUP4 PUSH1 0x2 PUSH1 0x9 DUP2 LT PUSH2 0x11A8 JUMPI PUSH2 0x11A7 PUSH2 0x1A5A JUMP JUMPDEST JUMPDEST PUSH1 0x20 MUL ADD MLOAD LT DUP1 PUSH2 0x11D1 JUMPI POP PUSH1 0x2 DUP4 PUSH1 0x2 PUSH1 0x9 DUP2 LT PUSH2 0x11CA JUMPI PUSH2 0x11C9 PUSH2 0x1A5A JUMP JUMPDEST JUMPDEST PUSH1 0x20 MUL ADD MLOAD GT JUMPDEST ISZERO PUSH2 0x11DB JUMPI PUSH1 0x0 SWAP1 POP JUMPDEST PUSH1 0x0 DUP4 PUSH1 0x3 PUSH1 0x9 DUP2 LT PUSH2 0x11F1 JUMPI PUSH2 0x11F0 PUSH2 0x1A5A JUMP JUMPDEST JUMPDEST PUSH1 0x20 MUL ADD MLOAD LT DUP1 PUSH2 0x121A JUMPI POP PUSH1 0x2 DUP4 PUSH1 0x3 PUSH1 0x9 DUP2 LT PUSH2 0x1213 JUMPI PUSH2 0x1212 PUSH2 0x1A5A JUMP JUMPDEST JUMPDEST PUSH1 0x20 MUL ADD MLOAD GT JUMPDEST ISZERO PUSH2 0x1224 JUMPI PUSH1 0x0 SWAP1 POP JUMPDEST PUSH1 0x0 DUP4 PUSH1 0x4 PUSH1 0x9 DUP2 LT PUSH2 0x123A JUMPI PUSH2 0x1239 PUSH2 0x1A5A JUMP JUMPDEST JUMPDEST PUSH1 0x20 MUL ADD MLOAD LT DUP1 PUSH2 0x1263 JUMPI POP PUSH1 0x3 DUP4 PUSH1 0x4 PUSH1 0x9 DUP2 LT PUSH2 0x125C JUMPI PUSH2 0x125B PUSH2 0x1A5A JUMP JUMPDEST JUMPDEST PUSH1 0x20 MUL ADD MLOAD GT JUMPDEST ISZERO PUSH2 0x126D JUMPI PUSH1 0x0 SWAP1 POP JUMPDEST PUSH1 0x0 DUP4 PUSH1 0x5 PUSH1 0x9 DUP2 LT PUSH2 0x1283 JUMPI PUSH2 0x1282 PUSH2 0x1A5A JUMP JUMPDEST JUMPDEST PUSH1 0x20 MUL ADD MLOAD LT DUP1 PUSH2 0x12AC JUMPI POP PUSH1 0x3 DUP4 PUSH1 0x5 PUSH1 0x9 DUP2 LT PUSH2 0x12A5 JUMPI PUSH2 0x12A4 PUSH2 0x1A5A JUMP JUMPDEST JUMPDEST PUSH1 0x20 MUL ADD MLOAD GT JUMPDEST ISZERO PUSH2 0x12B6 JUMPI PUSH1 0x0 SWAP1 POP JUMPDEST PUSH1 0x0 DUP4 PUSH1 0x6 PUSH1 0x9 DUP2 LT PUSH2 0x12CC JUMPI PUSH2 0x12CB PUSH2 0x1A5A JUMP JUMPDEST JUMPDEST PUSH1 0x20 MUL ADD MLOAD LT DUP1 PUSH2 0x12F5 JUMPI POP PUSH1 0x5 DUP4 PUSH1 0x6 PUSH1 0x9 DUP2 LT PUSH2 0x12EE JUMPI PUSH2 0x12ED PUSH2 0x1A5A JUMP JUMPDEST JUMPDEST PUSH1 0x20 MUL ADD MLOAD GT JUMPDEST DUP1 PUSH2 0x1361 JUMPI POP PUSH1 0x0 DUP4 PUSH1 0x6 PUSH1 0x9 DUP2 LT PUSH2 0x1311 JUMPI PUSH2 0x1310 PUSH2 0x1A5A JUMP JUMPDEST JUMPDEST PUSH1 0x20 MUL ADD MLOAD GT DUP1 ISZERO PUSH2 0x1360 JUMPI POP PUSH1 0x0 DUP4 PUSH1 0x7 PUSH1 0x9 DUP2 LT PUSH2 0x1334 JUMPI PUSH2 0x1333 PUSH2 0x1A5A JUMP JUMPDEST JUMPDEST PUSH1 0x20 MUL ADD MLOAD EQ ISZERO DUP1 PUSH2 0x135F JUMPI POP PUSH1 0x0 DUP4 PUSH1 0x8 PUSH1 0x9 DUP2 LT PUSH2 0x1357 JUMPI PUSH2 0x1356 PUSH2 0x1A5A JUMP JUMPDEST JUMPDEST PUSH1 0x20 MUL ADD MLOAD EQ ISZERO JUMPDEST JUMPDEST JUMPDEST ISZERO PUSH2 0x136B JUMPI PUSH1 0x0 SWAP1 POP JUMPDEST PUSH1 0x0 DUP4 PUSH1 0x7 PUSH1 0x9 DUP2 LT PUSH2 0x1381 JUMPI PUSH2 0x1380 PUSH2 0x1A5A JUMP JUMPDEST JUMPDEST PUSH1 0x20 MUL ADD MLOAD LT DUP1 PUSH2 0x13AA JUMPI POP PUSH1 0x5 DUP4 PUSH1 0x7 PUSH1 0x9 DUP2 LT PUSH2 0x13A3 JUMPI PUSH2 0x13A2 PUSH2 0x1A5A JUMP JUMPDEST JUMPDEST PUSH1 0x20 MUL ADD MLOAD GT JUMPDEST DUP1 PUSH2 0x1416 JUMPI POP PUSH1 0x0 DUP4 PUSH1 0x7 PUSH1 0x9 DUP2 LT PUSH2 0x13C6 JUMPI PUSH2 0x13C5 PUSH2 0x1A5A JUMP JUMPDEST JUMPDEST PUSH1 0x20 MUL ADD MLOAD GT DUP1 ISZERO PUSH2 0x1415 JUMPI POP PUSH1 0x0 DUP4 PUSH1 0x6 PUSH1 0x9 DUP2 LT PUSH2 0x13E9 JUMPI PUSH2 0x13E8 PUSH2 0x1A5A JUMP JUMPDEST JUMPDEST PUSH1 0x20 MUL ADD MLOAD EQ ISZERO DUP1 PUSH2 0x1414 JUMPI POP PUSH1 0x0 DUP4 PUSH1 0x8 PUSH1 0x9 DUP2 LT PUSH2 0x140C JUMPI PUSH2 0x140B PUSH2 0x1A5A JUMP JUMPDEST JUMPDEST PUSH1 0x20 MUL ADD MLOAD EQ ISZERO JUMPDEST JUMPDEST JUMPDEST ISZERO PUSH2 0x1420 JUMPI PUSH1 0x0 SWAP1 POP JUMPDEST PUSH1 0x0 DUP4 PUSH1 0x8 PUSH1 0x9 DUP2 LT PUSH2 0x1436 JUMPI PUSH2 0x1435 PUSH2 0x1A5A JUMP JUMPDEST JUMPDEST PUSH1 0x20 MUL ADD MLOAD LT DUP1 PUSH2 0x145F JUMPI POP PUSH1 0x5 DUP4 PUSH1 0x8 PUSH1 0x9 DUP2 LT PUSH2 0x1458 JUMPI PUSH2 0x1457 PUSH2 0x1A5A JUMP JUMPDEST JUMPDEST PUSH1 0x20 MUL ADD MLOAD GT JUMPDEST DUP1 PUSH2 0x14CB JUMPI POP PUSH1 0x0 DUP4 PUSH1 0x8 PUSH1 0x9 DUP2 LT PUSH2 0x147B JUMPI PUSH2 0x147A PUSH2 0x1A5A JUMP JUMPDEST JUMPDEST PUSH1 0x20 MUL ADD MLOAD GT DUP1 ISZERO PUSH2 0x14CA JUMPI POP PUSH1 0x0 DUP4 PUSH1 0x6 PUSH1 0x9 DUP2 LT PUSH2 0x149E JUMPI PUSH2 0x149D PUSH2 0x1A5A JUMP JUMPDEST JUMPDEST PUSH1 0x20 MUL ADD MLOAD EQ ISZERO DUP1 PUSH2 0x14C9 JUMPI POP PUSH1 0x0 DUP4 PUSH1 0x7 PUSH1 0x9 DUP2 LT PUSH2 0x14C1 JUMPI PUSH2 0x14C0 PUSH2 0x1A5A JUMP JUMPDEST JUMPDEST PUSH1 0x20 MUL ADD MLOAD EQ ISZERO JUMPDEST JUMPDEST JUMPDEST ISZERO PUSH2 0x14D5 JUMPI PUSH1 0x0 SWAP1 POP JUMPDEST DUP1 SWAP2 POP POP SWAP2 SWAP1 POP JUMP JUMPDEST PUSH1 0x0 PUSH1 0x40 MLOAD SWAP1 POP SWAP1 JUMP JUMPDEST PUSH1 0x0 DUP1 REVERT JUMPDEST PUSH1 0x0 DUP2 SWAP1 POP SWAP2 SWAP1 POP JUMP JUMPDEST PUSH2 0x1500 DUP2 PUSH2 0x14ED JUMP JUMPDEST DUP2 EQ PUSH2 0x150B JUMPI PUSH1 0x0 DUP1 REVERT JUMPDEST POP JUMP JUMPDEST PUSH1 0x0 DUP2 CALLDATALOAD SWAP1 POP PUSH2 0x151D DUP2 PUSH2 0x14F7 JUMP JUMPDEST SWAP3 SWAP2 POP POP JUMP JUMPDEST PUSH1 0x0 PUSH1 0x20 DUP3 DUP5 SUB SLT ISZERO PUSH2 0x1539 JUMPI PUSH2 0x1538 PUSH2 0x14E8 JUMP JUMPDEST JUMPDEST PUSH1 0x0 PUSH2 0x1547 DUP5 DUP3 DUP6 ADD PUSH2 0x150E JUMP JUMPDEST SWAP2 POP POP SWAP3 SWAP2 POP POP JUMP JUMPDEST PUSH2 0x1559 DUP2 PUSH2 0x14ED JUMP JUMPDEST DUP3 MSTORE POP POP JUMP JUMPDEST PUSH1 0x0 PUSH2 0x180 DUP3 ADD SWAP1 POP PUSH2 0x1575 PUSH1 0x0 DUP4 ADD DUP16 PUSH2 0x1550 JUMP JUMPDEST PUSH2 0x1582 PUSH1 0x20 DUP4 ADD DUP15 PUSH2 0x1550 JUMP JUMPDEST PUSH2 0x158F PUSH1 0x40 DUP4 ADD DUP14 PUSH2 0x1550 JUMP JUMPDEST PUSH2 0x159C PUSH1 0x60 DUP4 ADD DUP13 PUSH2 0x1550 JUMP JUMPDEST PUSH2 0x15A9 PUSH1 0x80 DUP4 ADD DUP12 PUSH2 0x1550 JUMP JUMPDEST PUSH2 0x15B6 PUSH1 0xA0 DUP4 ADD DUP11 PUSH2 0x1550 JUMP JUMPDEST PUSH2 0x15C3 PUSH1 0xC0 DUP4 ADD DUP10 PUSH2 0x1550 JUMP JUMPDEST PUSH2 0x15D0 PUSH1 0xE0 DUP4 ADD DUP9 PUSH2 0x1550 JUMP JUMPDEST PUSH2 0x15DE PUSH2 0x100 DUP4 ADD DUP8 PUSH2 0x1550 JUMP JUMPDEST PUSH2 0x15EC PUSH2 0x120 DUP4 ADD DUP7 PUSH2 0x1550 JUMP JUMPDEST PUSH2 0x15FA PUSH2 0x140 DUP4 ADD DUP6 PUSH2 0x1550 JUMP JUMPDEST PUSH2 0x1608 PUSH2 0x160 DUP4 ADD DUP5 PUSH2 0x1550 JUMP JUMPDEST SWAP14 SWAP13 POP POP POP POP POP POP POP POP POP POP POP POP POP JUMP JUMPDEST PUSH1 0x0 PUSH1 0x20 DUP3 ADD SWAP1 POP PUSH2 0x162E PUSH1 0x0 DUP4 ADD DUP5 PUSH2 0x1550 JUMP JUMPDEST SWAP3 SWAP2 POP POP JUMP JUMPDEST PUSH1 0x0 DUP2 ISZERO ISZERO SWAP1 POP SWAP2 SWAP1 POP JUMP JUMPDEST PUSH2 0x1649 DUP2 PUSH2 0x1634 JUMP JUMPDEST DUP3 MSTORE POP POP JUMP JUMPDEST PUSH1 0x0 PUSH1 0x20 DUP3 ADD SWAP1 POP PUSH2 0x1664 PUSH1 0x0 DUP4 ADD DUP5 PUSH2 0x1640 JUMP JUMPDEST SWAP3 SWAP2 POP POP JUMP JUMPDEST PUSH1 0x0 DUP1 REVERT JUMPDEST PUSH1 0x0 PUSH1 0x1F NOT PUSH1 0x1F DUP4 ADD AND SWAP1 POP SWAP2 SWAP1 POP JUMP JUMPDEST PUSH32 0x4E487B7100000000000000000000000000000000000000000000000000000000 PUSH1 0x0 MSTORE PUSH1 0x41 PUSH1 0x4 MSTORE PUSH1 0x24 PUSH1 0x0 REVERT JUMPDEST PUSH2 0x16B8 DUP3 PUSH2 0x166F JUMP JUMPDEST DUP2 ADD DUP2 DUP2 LT PUSH8 0xFFFFFFFFFFFFFFFF DUP3 GT OR ISZERO PUSH2 0x16D7 JUMPI PUSH2 0x16D6 PUSH2 0x1680 JUMP JUMPDEST JUMPDEST DUP1 PUSH1 0x40 MSTORE POP POP POP JUMP JUMPDEST PUSH1 0x0 PUSH2 0x16EA PUSH2 0x14DE JUMP JUMPDEST SWAP1 POP PUSH2 0x16F6 DUP3 DUP3 PUSH2 0x16AF JUMP JUMPDEST SWAP2 SWAP1 POP JUMP JUMPDEST PUSH1 0x0 PUSH8 0xFFFFFFFFFFFFFFFF DUP3 GT ISZERO PUSH2 0x1716 JUMPI PUSH2 0x1715 PUSH2 0x1680 JUMP JUMPDEST JUMPDEST PUSH1 0x20 DUP3 MUL SWAP1 POP SWAP2 SWAP1 POP JUMP JUMPDEST PUSH1 0x0 DUP1 REVERT JUMPDEST PUSH1 0x0 PUSH2 0x1739 PUSH2 0x1734 DUP5 PUSH2 0x16FB JUMP JUMPDEST PUSH2 0x16E0 JUMP JUMPDEST SWAP1 POP DUP1 PUSH1 0x20 DUP5 MUL DUP4 ADD DUP6 DUP2 GT ISZERO PUSH2 0x1753 JUMPI PUSH2 0x1752 PUSH2 0x1721 JUMP JUMPDEST JUMPDEST DUP4 JUMPDEST DUP2 DUP2 LT ISZERO PUSH2 0x177C JUMPI DUP1 PUSH2 0x1768 DUP9 DUP3 PUSH2 0x150E JUMP JUMPDEST DUP5 MSTORE PUSH1 0x20 DUP5 ADD SWAP4 POP POP PUSH1 0x20 DUP2 ADD SWAP1 POP PUSH2 0x1755 JUMP JUMPDEST POP POP POP SWAP4 SWAP3 POP POP POP JUMP JUMPDEST PUSH1 0x0 DUP3 PUSH1 0x1F DUP4 ADD SLT PUSH2 0x179B JUMPI PUSH2 0x179A PUSH2 0x166A JUMP JUMPDEST JUMPDEST PUSH1 0x9 PUSH2 0x17A8 DUP5 DUP3 DUP6 PUSH2 0x1726 JUMP JUMPDEST SWAP2 POP POP SWAP3 SWAP2 POP POP JUMP JUMPDEST PUSH1 0x0 DUP1 PUSH1 0x0 PUSH2 0x160 DUP5 DUP7 SUB SLT ISZERO PUSH2 0x17CB JUMPI PUSH2 0x17CA PUSH2 0x14E8 JUMP JUMPDEST JUMPDEST PUSH1 0x0 PUSH2 0x17D9 DUP7 DUP3 DUP8 ADD PUSH2 0x150E JUMP JUMPDEST SWAP4 POP POP PUSH1 0x20 PUSH2 0x17EA DUP7 DUP3 DUP8 ADD PUSH2 0x150E JUMP JUMPDEST SWAP3 POP POP PUSH1 0x40 PUSH2 0x17FB DUP7 DUP3 DUP8 ADD PUSH2 0x1786 JUMP JUMPDEST SWAP2 POP POP SWAP3 POP SWAP3 POP SWAP3 JUMP JUMPDEST PUSH1 0x0 DUP1 PUSH1 0x0 DUP1 PUSH2 0x180 DUP6 DUP8 SUB SLT ISZERO PUSH2 0x1820 JUMPI PUSH2 0x181F PUSH2 0x14E8 JUMP JUMPDEST JUMPDEST PUSH1 0x0 PUSH2 0x182E DUP8 DUP3 DUP9 ADD PUSH2 0x150E JUMP JUMPDEST SWAP5 POP POP PUSH1 0x20 PUSH2 0x183F DUP8 DUP3 DUP9 ADD PUSH2 0x150E JUMP JUMPDEST SWAP4 POP POP PUSH1 0x40 PUSH2 0x1850 DUP8 DUP3 DUP9 ADD PUSH2 0x150E JUMP JUMPDEST SWAP3 POP POP PUSH1 0x60 PUSH2 0x1861 DUP8 DUP3 DUP9 ADD PUSH2 0x1786 JUMP JUMPDEST SWAP2 POP POP SWAP3 SWAP6 SWAP2 SWAP5 POP SWAP3 POP JUMP JUMPDEST PUSH1 0x0 DUP3 DUP3 MSTORE PUSH1 0x20 DUP3 ADD SWAP1 POP SWAP3 SWAP2 POP POP JUMP JUMPDEST PUSH32 0x546865206974656D206964206E756D6265722070726F7669646564206973206E PUSH1 0x0 DUP3 ADD MSTORE PUSH32 0x6F7420657175616C20746F20616E2061636365707465642073776F7264000000 PUSH1 0x20 DUP3 ADD MSTORE POP JUMP JUMPDEST PUSH1 0x0 PUSH2 0x18DA PUSH1 0x3D DUP4 PUSH2 0x186D JUMP JUMPDEST SWAP2 POP PUSH2 0x18E5 DUP3 PUSH2 0x187E JUMP JUMPDEST PUSH1 0x40 DUP3 ADD SWAP1 POP SWAP2 SWAP1 POP JUMP JUMPDEST PUSH1 0x0 PUSH1 0x20 DUP3 ADD SWAP1 POP DUP2 DUP2 SUB PUSH1 0x0 DUP4 ADD MSTORE PUSH2 0x1909 DUP2 PUSH2 0x18CD JUMP JUMPDEST SWAP1 POP SWAP2 SWAP1 POP JUMP JUMPDEST PUSH32 0x5468652073776F72642070726F766964656420646F6573206E6F742068617665 PUSH1 0x0 DUP3 ADD MSTORE PUSH32 0x2061636365707461626C65206475726162696C69747900000000000000000000 PUSH1 0x20 DUP3 ADD MSTORE POP JUMP JUMPDEST PUSH1 0x0 PUSH2 0x196C PUSH1 0x36 DUP4 PUSH2 0x186D JUMP JUMPDEST SWAP2 POP PUSH2 0x1977 DUP3 PUSH2 0x1910 JUMP JUMPDEST PUSH1 0x40 DUP3 ADD SWAP1 POP SWAP2 SWAP1 POP JUMP JUMPDEST PUSH1 0x0 PUSH1 0x20 DUP3 ADD SWAP1 POP DUP2 DUP2 SUB PUSH1 0x0 DUP4 ADD MSTORE PUSH2 0x199B DUP2 PUSH2 0x195F JUMP JUMPDEST SWAP1 POP SWAP2 SWAP1 POP JUMP JUMPDEST PUSH32 0x54686520656E6368616E746D656E7473206F6E20746869732073776F72642061 PUSH1 0x0 DUP3 ADD MSTORE PUSH32 0x7265206E6F742076616C696420696E207468652076616E696C6C612076657273 PUSH1 0x20 DUP3 ADD MSTORE PUSH32 0x696F6E206F66206D696E65637261667400000000000000000000000000000000 PUSH1 0x40 DUP3 ADD MSTORE POP JUMP JUMPDEST PUSH1 0x0 PUSH2 0x1A24 PUSH1 0x50 DUP4 PUSH2 0x186D JUMP JUMPDEST SWAP2 POP PUSH2 0x1A2F DUP3 PUSH2 0x19A2 JUMP JUMPDEST PUSH1 0x60 DUP3 ADD SWAP1 POP SWAP2 SWAP1 POP JUMP JUMPDEST PUSH1 0x0 PUSH1 0x20 DUP3 ADD SWAP1 POP DUP2 DUP2 SUB PUSH1 0x0 DUP4 ADD MSTORE PUSH2 0x1A53 DUP2 PUSH2 0x1A17 JUMP JUMPDEST SWAP1 POP SWAP2 SWAP1 POP JUMP JUMPDEST PUSH32 0x4E487B7100000000000000000000000000000000000000000000000000000000 PUSH1 0x0 MSTORE PUSH1 0x32 PUSH1 0x4 MSTORE PUSH1 0x24 PUSH1 0x0 REVERT JUMPDEST PUSH32 0x4E487B7100000000000000000000000000000000000000000000000000000000 PUSH1 0x0 MSTORE PUSH1 0x11 PUSH1 0x4 MSTORE PUSH1 0x24 PUSH1 0x0 REVERT JUMPDEST PUSH1 0x0 PUSH2 0x1AC3 DUP3 PUSH2 0x14ED JUMP JUMPDEST SWAP2 POP PUSH2 0x1ACE DUP4 PUSH2 0x14ED JUMP JUMPDEST SWAP3 POP DUP3 DUP3 LT ISZERO PUSH2 0x1AE1 JUMPI PUSH2 0x1AE0 PUSH2 0x1A89 JUMP JUMPDEST JUMPDEST DUP3 DUP3 SUB SWAP1 POP SWAP3 SWAP2 POP POP JUMP JUMPDEST PUSH1 0x0 PUSH20 0xFFFFFFFFFFFFFFFFFFFFFFFFFFFFFFFFFFFFFFFF DUP3 AND SWAP1 POP SWAP2 SWAP1 POP JUMP JUMPDEST PUSH1 0x0 PUSH2 0x1B17 DUP3 PUSH2 0x1AEC JUMP JUMPDEST SWAP1 POP SWAP2 SWAP1 POP JUMP JUMPDEST PUSH2 0x1B27 DUP2 PUSH2 0x1B0C JUMP JUMPDEST DUP3 MSTORE POP POP JUMP JUMPDEST PUSH1 0x0 DUP2 SWAP1 POP SWAP2 SWAP1 POP JUMP JUMPDEST PUSH1 0x0 DUP2 SWAP1 POP SWAP2 SWAP1 POP JUMP JUMPDEST PUSH1 0x0 PUSH2 0x1B5C PUSH2 0x1B57 PUSH2 0x1B52 DUP5 PUSH2 0x1B2D JUMP JUMPDEST PUSH2 0x1B37 JUMP JUMPDEST PUSH2 0x14ED JUMP JUMPDEST SWAP1 POP SWAP2 SWAP1 POP JUMP JUMPDEST PUSH2 0x1B6C DUP2 PUSH2 0x1B41 JUMP JUMPDEST DUP3 MSTORE POP POP JUMP JUMPDEST PUSH1 0x0 PUSH1 0xC0 DUP3 ADD SWAP1 POP PUSH2 0x1B87 PUSH1 0x0 DUP4 ADD DUP10 PUSH2 0x1B1E JUMP JUMPDEST PUSH2 0x1B94 PUSH1 0x20 DUP4 ADD DUP9 PUSH2 0x1B1E JUMP JUMPDEST PUSH2 0x1BA1 PUSH1 0x40 DUP4 ADD DUP8 PUSH2 0x1550 JUMP JUMPDEST PUSH2 0x1BAE PUSH1 0x60 DUP4 ADD DUP7 PUSH2 0x1550 JUMP JUMPDEST PUSH2 0x1BBB PUSH1 0x80 DUP4 ADD DUP6 PUSH2 0x1B63 JUMP JUMPDEST PUSH2 0x1BC8 PUSH1 0xA0 DUP4 ADD DUP5 PUSH2 0x1640 JUMP JUMPDEST SWAP8 SWAP7 POP POP POP POP POP POP POP JUMP JUMPDEST PUSH1 0x0 DUP2 MLOAD SWAP1 POP PUSH2 0x1BE2 DUP2 PUSH2 0x14F7 JUMP JUMPDEST SWAP3 SWAP2 POP POP JUMP JUMPDEST PUSH1 0x0 PUSH1 0x20 DUP3 DUP5 SUB SLT ISZERO PUSH2 0x1BFE JUMPI PUSH2 0x1BFD PUSH2 0x14E8 JUMP JUMPDEST JUMPDEST PUSH1 0x0 PUSH2 0x1C0C DUP5 DUP3 DUP6 ADD PUSH2 0x1BD3 JUMP JUMPDEST SWAP2 POP POP SWAP3 SWAP2 POP POP JUMP JUMPDEST PUSH1 0x0 PUSH1 0x40 DUP3 ADD SWAP1 POP PUSH2 0x1C2A PUSH1 0x0 DUP4 ADD DUP6 PUSH2 0x1B1E JUMP JUMPDEST PUSH2 0x1C37 PUSH1 0x20 DUP4 ADD DUP5 PUSH2 0x1550 JUMP JUMPDEST SWAP4 SWAP3 POP POP POP JUMP JUMPDEST PUSH32 0x546865206163636F756E7420747279696E6720746F206578706F727420646F65 PUSH1 0x0 DUP3 ADD MSTORE PUSH32 0x73206E6F74206F776E207468697320746F6B656E000000000000000000000000 PUSH1 0x20 DUP3 ADD MSTORE POP JUMP JUMPDEST PUSH1 0x0 PUSH2 0x1C9A PUSH1 0x34 DUP4 PUSH2 0x186D JUMP JUMPDEST SWAP2 POP PUSH2 0x1CA5 DUP3 PUSH2 0x1C3E JUMP JUMPDEST PUSH1 0x40 DUP3 ADD SWAP1 POP SWAP2 SWAP1 POP JUMP JUMPDEST PUSH1 0x0 PUSH1 0x20 DUP3 ADD SWAP1 POP DUP2 DUP2 SUB PUSH1 0x0 DUP4 ADD MSTORE PUSH2 0x1CC9 DUP2 PUSH2 0x1C8D JUMP JUMPDEST SWAP1 POP SWAP2 SWAP1 POP JUMP JUMPDEST PUSH2 0x1CD9 DUP2 PUSH2 0x1B0C JUMP JUMPDEST DUP2 EQ PUSH2 0x1CE4 JUMPI PUSH1 0x0 DUP1 REVERT JUMPDEST POP JUMP JUMPDEST PUSH1 0x0 DUP2 MLOAD SWAP1 POP PUSH2 0x1CF6 DUP2 PUSH2 0x1CD0 JUMP JUMPDEST SWAP3 SWAP2 POP POP JUMP JUMPDEST PUSH1 0x0 DUP1 PUSH1 0x0 PUSH1 0x60 DUP5 DUP7 SUB SLT ISZERO PUSH2 0x1D15 JUMPI PUSH2 0x1D14 PUSH2 0x14E8 JUMP JUMPDEST JUMPDEST PUSH1 0x0 PUSH2 0x1D23 DUP7 DUP3 DUP8 ADD PUSH2 0x1CE7 JUMP JUMPDEST SWAP4 POP POP PUSH1 0x20 PUSH2 0x1D34 DUP7 DUP3 DUP8 ADD PUSH2 0x1BD3 JUMP JUMPDEST SWAP3 POP POP PUSH1 0x40 PUSH2 0x1D45 DUP7 DUP3 DUP8 ADD PUSH2 0x1BD3 JUMP JUMPDEST SWAP2 POP POP SWAP3 POP SWAP3 POP SWAP3 JUMP JUMPDEST PUSH32 0x4974656D20646F6573206E6F7420636F72726573706F6E6420746F2074686973 PUSH1 0x0 DUP3 ADD MSTORE PUSH32 0x2067616D652D636F6E7472616374000000000000000000000000000000000000 PUSH1 0x20 DUP3 ADD MSTORE POP JUMP JUMPDEST PUSH1 0x0 PUSH2 0x1DAB PUSH1 0x2E DUP4 PUSH2 0x186D JUMP JUMPDEST SWAP2 POP PUSH2 0x1DB6 DUP3 PUSH2 0x1D4F JUMP JUMPDEST PUSH1 0x40 DUP3 ADD SWAP1 POP SWAP2 SWAP1 POP JUMP JUMPDEST PUSH1 0x0 PUSH1 0x20 DUP3 ADD SWAP1 POP DUP2 DUP2 SUB PUSH1 0x0 DUP4 ADD MSTORE PUSH2 0x1DDA DUP2 PUSH2 0x1D9E JUMP JUMPDEST SWAP1 POP SWAP2 SWAP1 POP JUMP JUMPDEST PUSH32 0x546865206974656D2773206C6F63616C206172726179206973206E6F74206F66 PUSH1 0x0 DUP3 ADD MSTORE PUSH32 0x20747970652073776F7264000000000000000000000000000000000000000000 PUSH1 0x20 DUP3 ADD MSTORE POP JUMP JUMPDEST PUSH1 0x0 PUSH2 0x1E3D PUSH1 0x2B DUP4 PUSH2 0x186D JUMP JUMPDEST SWAP2 POP PUSH2 0x1E48 DUP3 PUSH2 0x1DE1 JUMP JUMPDEST PUSH1 0x40 DUP3 ADD SWAP1 POP SWAP2 SWAP1 POP JUMP JUMPDEST PUSH1 0x0 PUSH1 0x20 DUP3 ADD SWAP1 POP DUP2 DUP2 SUB PUSH1 0x0 DUP4 ADD MSTORE PUSH2 0x1E6C DUP2 PUSH2 0x1E30 JUMP JUMPDEST SWAP1 POP SWAP2 SWAP1 POP JUMP JUMPDEST PUSH32 0x546869732073776F7264206973206E6F742063757272656E746C7920696E2067 PUSH1 0x0 DUP3 ADD MSTORE PUSH32 0x616D6520616E6420746875732063616E2774206265206578706F727465640000 PUSH1 0x20 DUP3 ADD MSTORE POP JUMP JUMPDEST PUSH1 0x0 PUSH2 0x1ECF PUSH1 0x3E DUP4 PUSH2 0x186D JUMP JUMPDEST SWAP2 POP PUSH2 0x1EDA DUP3 PUSH2 0x1E73 JUMP JUMPDEST PUSH1 0x40 DUP3 ADD SWAP1 POP SWAP2 SWAP1 POP JUMP JUMPDEST PUSH1 0x0 PUSH1 0x20 DUP3 ADD SWAP1 POP DUP2 DUP2 SUB PUSH1 0x0 DUP4 ADD MSTORE PUSH2 0x1EFE DUP2 PUSH2 0x1EC2 JUMP JUMPDEST SWAP1 POP SWAP2 SWAP1 POP JUMP JUMPDEST PUSH1 0x0 PUSH1 0x80 DUP3 ADD SWAP1 POP PUSH2 0x1F1A PUSH1 0x0 DUP4 ADD DUP8 PUSH2 0x1B1E JUMP JUMPDEST PUSH2 0x1F27 PUSH1 0x20 DUP4 ADD DUP7 PUSH2 0x1B1E JUMP JUMPDEST PUSH2 0x1F34 PUSH1 0x40 DUP4 ADD DUP6 PUSH2 0x1550 JUMP JUMPDEST PUSH2 0x1F41 PUSH1 0x60 DUP4 ADD DUP5 PUSH2 0x1640 JUMP JUMPDEST SWAP6 SWAP5 POP POP POP POP POP JUMP JUMPDEST PUSH32 0x546865206163636F756E7420747279696E6720746F20696D706F727420646F65 PUSH1 0x0 DUP3 ADD MSTORE PUSH32 0x73206E6F74206F776E207468697320746F6B656E000000000000000000000000 PUSH1 0x20 DUP3 ADD MSTORE POP JUMP JUMPDEST PUSH1 0x0 PUSH2 0x1FA6 PUSH1 0x34 DUP4 PUSH2 0x186D JUMP JUMPDEST SWAP2 POP PUSH2 0x1FB1 DUP3 PUSH2 0x1F4A JUMP JUMPDEST PUSH1 0x40 DUP3 ADD SWAP1 POP SWAP2 SWAP1 POP JUMP JUMPDEST PUSH1 0x0 PUSH1 0x20 DUP3 ADD SWAP1 POP DUP2 DUP2 SUB PUSH1 0x0 DUP4 ADD MSTORE PUSH2 0x1FD5 DUP2 PUSH2 0x1F99 JUMP JUMPDEST SWAP1 POP SWAP2 SWAP1 POP JUMP JUMPDEST PUSH32 0x546869732073776F72642069732063757272656E746C7920696E2D67616D6520 PUSH1 0x0 DUP3 ADD MSTORE PUSH32 0x616E6420746875732063616E277420626520696D706F72746564000000000000 PUSH1 0x20 DUP3 ADD MSTORE POP JUMP JUMPDEST PUSH1 0x0 PUSH2 0x2038 PUSH1 0x3A DUP4 PUSH2 0x186D JUMP JUMPDEST SWAP2 POP PUSH2 0x2043 DUP3 PUSH2 0x1FDC JUMP JUMPDEST PUSH1 0x40 DUP3 ADD SWAP1 POP SWAP2 SWAP1 POP JUMP JUMPDEST PUSH1 0x0 PUSH1 0x20 DUP3 ADD SWAP1 POP DUP2 DUP2 SUB PUSH1 0x0 DUP4 ADD MSTORE PUSH2 0x2067 DUP2 PUSH2 0x202B JUMP JUMPDEST SWAP1 POP SWAP2 SWAP1 POP JUMP INVALID LOG2 PUSH5 0x6970667358 0x22 SLT KECCAK256 0x27 CHAINID SWAP13 DUP5 GASLIMIT 0xF7 SAR 0xE9 0x23 0xB2 0xDE PUSH21 0x3588329FE0F8BE6F463D75C7A9816EDF17B0EB0A64 PUSH20 0x6F6C634300080A00330000000000000000000000 "
		},
		"gasEstimates": {
			"creation": {
				"codeDepositCost": "1671200",
				"executionCost": "164182",
				"totalCost": "1835382"
			},
			"external": {
				"exportSword(uint256,uint256,uint256,uint256[9])": "infinite",
				"globalIdToSwordId(uint256)": "infinite",
				"importSword(uint256)": "infinite",
				"mintSword(uint256,uint256,uint256[9])": "infinite",
				"swordIdToGlobalId(uint256)": "infinite",
				"swordInGameStatus(uint256)": "2841",
				"swords(uint256)": "infinite"
			},
			"internal": {
				"isValidSwordId(uint256)": "215",
				"validateSwordEnchantments(uint256[9] memory)": "infinite"
			}
		},
		"methodIdentifiers": {
			"exportSword(uint256,uint256,uint256,uint256[9])": "c03bfe0d",
			"globalIdToSwordId(uint256)": "ecff3332",
			"importSword(uint256)": "e5492e28",
			"mintSword(uint256,uint256,uint256[9])": "bb3fce00",
			"swordIdToGlobalId(uint256)": "95eddf7d",
			"swordInGameStatus(uint256)": "b11d6046",
			"swords(uint256)": "6653d0f5"
		}
	},
	"abi": [
		{
			"inputs": [],
			"stateMutability": "nonpayable",
			"type": "constructor"
		},
		{
			"inputs": [
				{
					"internalType": "uint256",
					"name": "_tokenId",
					"type": "uint256"
				},
				{
					"internalType": "uint256",
					"name": "_swordType",
					"type": "uint256"
				},
				{
					"internalType": "uint256",
					"name": "_currentDurability",
					"type": "uint256"
				},
				{
					"internalType": "uint256[9]",
					"name": "_enchantmentsList",
					"type": "uint256[9]"
				}
			],
			"name": "exportSword",
			"outputs": [],
			"stateMutability": "nonpayable",
			"type": "function"
		},
		{
			"inputs": [
				{
					"internalType": "uint256",
					"name": "",
					"type": "uint256"
				}
			],
			"name": "globalIdToSwordId",
			"outputs": [
				{
					"internalType": "uint256",
					"name": "",
					"type": "uint256"
				}
			],
			"stateMutability": "view",
			"type": "function"
		},
		{
			"inputs": [
				{
					"internalType": "uint256",
					"name": "_tokenId",
					"type": "uint256"
				}
			],
			"name": "importSword",
			"outputs": [],
			"stateMutability": "nonpayable",
			"type": "function"
		},
		{
			"inputs": [
				{
					"internalType": "uint256",
					"name": "_swordType",
					"type": "uint256"
				},
				{
					"internalType": "uint256",
					"name": "_currentDurability",
					"type": "uint256"
				},
				{
					"internalType": "uint256[9]",
					"name": "_enchantmentsList",
					"type": "uint256[9]"
				}
			],
			"name": "mintSword",
			"outputs": [
				{
					"internalType": "uint256",
					"name": "",
					"type": "uint256"
				}
			],
			"stateMutability": "nonpayable",
			"type": "function"
		},
		{
			"inputs": [
				{
					"internalType": "uint256",
					"name": "",
					"type": "uint256"
				}
			],
			"name": "swordIdToGlobalId",
			"outputs": [
				{
					"internalType": "uint256",
					"name": "",
					"type": "uint256"
				}
			],
			"stateMutability": "view",
			"type": "function"
		},
		{
			"inputs": [
				{
					"internalType": "uint256",
					"name": "",
					"type": "uint256"
				}
			],
			"name": "swordInGameStatus",
			"outputs": [
				{
					"internalType": "bool",
					"name": "",
					"type": "bool"
				}
			],
			"stateMutability": "view",
			"type": "function"
		},
		{
			"inputs": [
				{
					"internalType": "uint256",
					"name": "",
					"type": "uint256"
				}
			],
			"name": "swords",
			"outputs": [
				{
					"internalType": "uint256",
					"name": "swordType",
					"type": "uint256"
				},
				{
					"internalType": "uint256",
					"name": "maxDurability",
					"type": "uint256"
				},
				{
					"internalType": "uint256",
					"name": "currentDurability",
					"type": "uint256"
				},
				{
					"internalType": "uint256",
					"name": "hasMending",
					"type": "uint256"
				},
				{
					"internalType": "uint256",
					"name": "hasCurseOfVanishing",
					"type": "uint256"
				},
				{
					"internalType": "uint256",
					"name": "hasFireAspect",
					"type": "uint256"
				},
				{
					"internalType": "uint256",
					"name": "hasKnockback",
					"type": "uint256"
				},
				{
					"internalType": "uint256",
					"name": "hasLooting",
					"type": "uint256"
				},
				{
					"internalType": "uint256",
					"name": "hasUnbreaking",
					"type": "uint256"
				},
				{
					"internalType": "uint256",
					"name": "hasSharpness",
					"type": "uint256"
				},
				{
					"internalType": "uint256",
					"name": "hasSmite",
					"type": "uint256"
				},
				{
					"internalType": "uint256",
					"name": "hasBaneOfArthopods",
					"type": "uint256"
				}
			],
			"stateMutability": "view",
			"type": "function"
		}
	]
}